:100000000C9462000C948A000C948A000C948A0070
:100010000C948A000C948A000C948A000C948A0038
:100020000C948A000C948A000C948A000C948A0028
:100030000C948A000C948A000C948A000C948A0018
:100040000C94C8060C948A000C946D080C94B408A7
:100050000C948A000C948A000C948A000C948A00F8
:100060000C948A000C948A000000000024002700F1
:100070002A0000000000250028002B0000000000DE
:1000800023002600290004040404040404040202DA
:100090000202020203030303030301020408102007
:1000A0004080010204081020010204081020000012
:1000B0000007000201000003040600000000000029
:1000C00000001A0A11241FBECFEFD8E0DEBFCDBF5B
:1000D00011E0A0E0B1E0ECE7F5E102C005900D927F
:1000E000AC33B107D9F712E0ACE3B1E001C01D9227
:1000F000AC35B107E1F710E0C4ECD0E004C02297C2
:10010000FE010E94B80AC23CD107C9F70E945D08EF
:100110000C94BC0A0C940000CF93DF93BC01823096
:10012000910510F462E070E0A0915A02B0915B0278
:10013000ED0140E050E0E0E0F0E021C088819981ED
:100140008617970769F48A819B81309719F093830A
:10015000828304C090935B0280935A02FE0134C0F4
:100160006817790738F44115510519F08417950778
:1001700008F4AC01FE018A819B819C01E901209772
:10018000E9F641155105A9F1CA01861B970B0497A1
:1001900008F4BA01E0E0F0E02AC08D919C9111973B
:1001A00084179507F9F46417750781F412968D91F9
:1001B0009C911397309719F09383828304C0909396
:1001C0005B0280935A02FD0132964CC0CA01861B25
:1001D000970BFD01E80FF91F6193719302978D93BF
:1001E0009C9340C0FD01828193819C01D9011097AD
:1001F000A1F68091580290915902892B41F4809187
:10020000020190910301909359028093580240910A
:100210000401509105014115510541F44DB75EB7F8
:100220008091000190910101481B590B20915802C7
:1002300030915902CA01821B930B8617970780F0F1
:10024000AB014E5F5F4F8417950750F0420F531F6D
:100250005093590240935802F9016193719302C07F
:10026000E0E0F0E0CF01DF91CF910895CF93DF93ED
:10027000009709F450C0EC0122971B821A82A091CA
:100280005A02B0915B02109709F140E050E0AC17C0
:10029000BD0708F1BB83AA83FE0121913191E20FD2
:1002A000F31FAE17BF0779F48D919C911197280F1A
:1002B000391F2E5F3F4F3983288312968D919C9171
:1002C00013979B838A834115510571F4D0935B0288
:1002D000C0935A0220C012968D919C911397AD0144
:1002E000009711F0DC01D3CFFA01D383C2832191AF
:1002F0003191E20FF31FCE17DF0769F488819981EE
:10030000280F391F2E5F3F4FFA01318320838A81E6
:100310009B8193838283DF91CF9108951F93182F40
:10032000885C833028F489E392E06AEC0E94E1095A
:1003300089E392E0612F0E94E1091F910895CF9314
:10034000DF93EC0189E392E00E947509892B11F497
:1003500080E006C089E392E00E94A609888381E0DC
:10036000DF91CF910895EF92FF921F93CF93DF9388
:10037000EC017B0110E089E392E00E94750988237B
:1003800051F4153169F01F5F61E070E080E090E0AA
:100390000E943607F0CFCE01B7010E949F0181E095
:1003A000DF91CF911F91FF90EF9008950F931F93CE
:1003B000CF93DF938C01EB01CB01B8010E94B30115
:1003C0008823A1F08881893C29F08A3C49F0883C47
:1003D00081F403C022E030E00EC020E030E00BC02A
:1003E000CE01B8010E94B301882319F421E030E066
:1003F00002C023E030E0C901DF91CF911F910F913E
:100400000895AF92BF92CF92DF92EF92FF920F9337
:100410001F93CF93DF936C01F62EE42E5901E80170
:1004200089E392E068EC0E94E1098D2DBE010E94F3
:100430008E010C2D8C2DBE010E948E018F2DBE01D0
:100440000E948E010F250D250E258E2DBE010E94C6
:100450008E0110E008C0EA0DFB1D808108271F5F98
:10046000BE010E948E01E12FF0E0EC15FD0598F32E
:10047000802FBE010E948E0189E392E069EC0E9408
:10048000E10989E392E00E94CF09DF91CF911F91AA
:100490000F91FF90EF90DF90CF90BF90AF900895B5
:1004A0002F923F924F925F926F927F928F929F9284
:1004B000AF92BF92CF92DF92EF92FF920F931F9372
:1004C000DF93CF93CDB7DEB728970FB6F894DEBF92
:1004D0000FBECDBF4C018B017A0159012DB73EB73C
:1004E0003E832D833DB73F838EB7888789E392E0B3
:1004F0000E947509882309F4A9C061E070E080E0DA
:1005000090E00E943607012B49F4CE010196B70115
:100510000E949F01882309F499C002C088EC898356
:100520008981883C09F092C084E0682E712C6C0EA1
:100530007D1EC701B3010E94D601B401A701950138
:100540000E944E03882309F481C0DC80C701B301F7
:100550000E94D601B401A70195010E944E03882391
:1005600009F474C00C819D2D80E02C01400E511CBB
:10057000C2010196EDB7FEB7E81BF90B0FB6F89470
:10058000FEBF0FBEEDBF2DB63EB60894211C311C38
:10059000C701BE016E5F7F4F0E94D601B401A70163
:1005A00095010E944E03882309F450C01A81C701A7
:1005B000BE016D5F7F4F0E94D601B401A701950176
:1005C0000E944E03882309F441C0D026D1268B8196
:1005D000D826CC24C301762C692E13C0C701672D01
:1005E000762D0E94D601B401A70195010E944E0309
:1005F000882361F18C81020D131DF8018083C3945F
:10060000D8260C2D10E00415150540F3C701672D01
:10061000762D0E94D601B401A70195010E944E03D8
:100620008823A1F08C81D81689F4872D962DB701E7
:100630000E94B301882351F08C81893C39F4C201B6
:100640006A814B8191018501F40109958F8198851B
:100650009C010FB6F8943EBF0FBE2DBF2D813E8189
:100660000FB6F8943EBF0FBE2DBF28960FB6F89474
:10067000DEBF0FBECDBFCF91DF911F910F91FF90D5
:10068000EF90DF90CF90BF90AF909F908F907F9032
:100690006F905F904F903F902F9008958330910519
:1006A00034F4813091057CF4892B29F00BC0039739
:1006B00049F481E00895CB0161E070E00E945002AE
:1006C00080E00895089580E00895FB0180818823EB
:1006D00049F42181928180E0820F911D90934F0116
:1006E00080934E010895EF92FF920F931F93CF9343
:1006F000DF930E9410076093A4017093A50180937B
:10070000A6019093A701C4E5D1E0E090A401F09088
:10071000A5010091A6011091A7018C819D81AE8158
:10072000BF81E816F9060A071B0768F41AC088811A
:100730009981AA81BB81820F931FA41FB51F8C834F
:100740009D83AE83BF832C813D814E815F81E21604
:10075000F3060407150758F7E885F985309709F07F
:1007600009952E9681E0C83AD80779F6DF91CF91A6
:100770001F910F91FF90EF900895109250011092E9
:10078000510110925201109253012EE630E040E0E8
:1007900050E02093540130935501409356015093FB
:1007A000570180EA95E090935D0180935C018EE1B2
:1007B00090E0A0E0B0E080935E0190935F01A09391
:1007C0006001B09361012093620130936301409313
:1007D00064015093650185EA95E090936B018093E5
:1007E0006A0110926C0110926D0110926E011092CC
:1007F0006F0188EE93E0A0E0B0E0809370019093E9
:100800007101A0937201B09373018BE796E090930E
:1008100079018093780110927A0110927B011092F5
:100820007C0110927D0184EF91E0A0E0B0E0809324
:100830007E0190937F01A0938001B093810183EEAC
:1008400095E0909387018093860110928801109221
:10085000890110928A0110928B0120E533EC40E06F
:1008600050E020938C0130938D0140938E01509382
:100870008F018CEC94E090939501809394011092F9
:10088000960110929701109298011092990120936D
:100890009A0130939B0140939C0150939D0185E701
:1008A00094E09093A3018093A2010E9410079B0102
:1008B000AC016093A4017093A5018093A60190936D
:1008C000A701E0E5F1E080819181A281B381820FEF
:1008D000931FA41FB51F80879187A287B3873E9679
:1008E00081E0E43AF80779F708950F931F9380E0C9
:1008F00090E063E040E020E030E000E010E00E94A3
:1009000001021F910F9108950F931F93DF93CF93CF
:1009100000D000D00F92CDB7DEB7FE01319695E042
:10092000DF011D929A95E9F78D8385E090E062E002
:1009300044E09F0100E010E00E9401020F900F9040
:100940000F900F900F90CF91DF911F910F9108950D
:100950000F931F93DF93CF9300D000D00F92CDB7AA
:10096000DEB7FE01319695E0DF011D929A95E9F719
:100970008D8385E090E062E043E09F0100E010E0BD
:100980000E9401020F900F900F900F900F90CF9147
:10099000DF911F910F910895DF92EF92FF920F93D5
:1009A0001F93CF93DF9300E010E0EE24FF24DD24BB
:1009B000D394502FE0914C01F0914D01C081D18131
:1009C000C00FD11F488120E030E00280F381E02D8C
:1009D000EE0DFF1D80819181A281B3810397A10556
:1009E000B10514F021E030E0842F90E0281739079A
:1009F00059F0442329F01882852F0E94840404C0F2
:100A0000D882852F0E94A8040F5F1F4F84E090E0DA
:100A1000E80EF91E0C30110561F680E090E0E091DF
:100A20004C01F0914D010280F381E02DE80FF91F98
:100A3000108211821282138204968033910579F715
:100A4000DF91CF911F910F91FF90EF90DF9008956C
:100A50000F931F93DF93CF93CDB7DEB7CA54D04027
:100A60000FB6F894DEBF0FBECDBFDE0111968AE44B
:100A7000FD0111928A95E9F782E08A8B33E03C8B85
:100A800091E09E8B9F8B24E0298F8DE08C8F88E0F6
:100A900089A72BA79DA79EA738AB80E18BABFE0152
:100AA000EF5BFF4F90838CE0FE01ED5BFF4F808397
:100AB0008AE490E060E041E09D0100E010E00E94E7
:100AC0000102C65BDF4F0FB6F894DEBF0FBECDBF8D
:100AD000CF91DF911F910F910895CF92DF92EF9206
:100AE000FF920F931F93CF93DF937C0107E011E0F8
:100AF000C0E0D0E021E0C22ED12CC6010C2E02C0F5
:100B0000880F991F0A94E2F78E219F21892B21F0EB
:100B1000F801808161E003C0F801808160E00E94FB
:100B2000090821960E5F1F4FC830D10531F7DF91BC
:100B3000CF911F910F91FF90EF90DF90CF9008958C
:100B400080E090E00E946D05089580914E019091A3
:100B50004F010E946D050895CF93DF93C7E0D1E068
:100B6000888161E00E94CA07229681E0C731D807D8
:100B7000B9F7DF91CF9108950F931F93CF93DF9330
:100B8000E82FF0E0E55EFE4F8081082F10E0C0E026
:100B9000D0E0FE01E95EFE4FB8010C2E02C0759553
:100BA00067950A94E2F7617080810E940908219696
:100BB000C430D10571F783E10E94A606DF91CF9181
:100BC0001F910F910895BF92CF92DF92EF92FF9203
:100BD0000F931F93CF93DF93BB24C0E0D0E0E0914D
:100BE0004C01F0914D01C280D380CC0EDD1EF60188
:100BF000E080F180028113818B2D0E94BC05AA2721
:100C000097FDA095BA2FE80EF91E0A1F1B1FF601CB
:100C1000E082F18202831383B3942496FCE0BF1632
:100C2000F1F6DF91CF911F910F91FF90EF90DF9040
:100C3000CF90BF900895CF93DF9384E090E00E941F
:100C40008C00EC018CE090E00E948C0088839983FA
:100C500080E390E00E948C008A839B8380E090E098
:100C6000E881F981E80FF91F108201968C30910517
:100C7000B9F784E061E00E94CA0788E061E00E9461
:100C8000CA0783E061E00E94CA0782E061E00E9437
:100C9000CA07CE01DF91CF91089589E392E040E841
:100CA00055E260E070E00E94EF080E94AC050E94EF
:100CB0001B0690934D0180934C01ECE3F1E011820F
:100CC000108213821282158214821782168238963D
:100CD00081E0EC34F80799F788E295E090933D01C4
:100CE00080933C0185E693E0909347018093460111
:100CF0000E94BD03089586E896E060E070E040E061
:100D000050E020E030E00E9450020895CF93DF933E
:100D1000E9016230A8F4443098F4E62FF0E0EE0FD9
:100D2000FF1FEE0FFF1FE40FF11DEE0FFF1FE45C2E
:100D3000FE4F0190F081E02D309711F0B901099537
:100D4000CE010E943601DF91CF910895982F8E3009
:100D500008F09E509770809106018295880F880F49
:100D6000807C892B80937C0080917A0080648093C2
:100D70007A0080917A0086FDFCCF20917800409126
:100D80007900942F80E030E0282B392BC901089599
:100D90001F920F920FB60F9211242F933F938F93B0
:100DA0009F93AF93BF938091AC019091AD01A091BF
:100DB000AE01B091AF013091B0010196A11DB11DFE
:100DC000232F2D5F2D3720F02D570196A11DB11D2A
:100DD0002093B0018093AC019093AD01A093AE013C
:100DE000B093AF018091A8019091A901A091AA01AF
:100DF000B091AB010196A11DB11D8093A801909304
:100E0000A901A093AA01B093AB01BF91AF919F91AB
:100E10008F913F912F910F900FBE0F901F901895BB
:100E20009FB7F8942091A8013091A9014091AA019F
:100E30005091AB0186B5A89B06C08F3F21F02F5F74
:100E40003F4F4F4F5F4F9FBF542F432F322F2227CB
:100E5000280F311D411D511D82E0220F331F441FF9
:100E6000551F8A95D1F7B901CA0108959B01AC01BC
:100E70007FB7F8948091A8019091A901A091AA014F
:100E8000B091AB0166B5A89B05C06F3F19F0019604
:100E9000A11DB11D7FBFBA2FA92F982F8827860FBC
:100EA000911DA11DB11D62E0880F991FAA1FBB1FD4
:100EB0006A95D1F7BC012DC0FFB7F8948091A801C5
:100EC0009091A901A091AA01B091AB01E6B5A89BB0
:100ED00005C0EF3F19F00196A11DB11DFFBFBA2F4C
:100EE000A92F982F88278E0F911DA11DB11DE2E01B
:100EF000880F991FAA1FBB1FEA95D1F7861B970B76
:100F0000885E9340C8F221503040404050406851C4
:100F10007C4F211531054105510571F608957894EE
:100F200084B5826084BD84B5816084BD85B58260EE
:100F300085BD85B5816085BDEEE6F0E0808181608C
:100F40008083E1E8F0E0108280818260808380818C
:100F500081608083E0E8F0E0808181608083E1EB64
:100F6000F0E0808184608083E0EBF0E0808181604C
:100F70008083EAE7F0E08081846080838081826002
:100F800080838081816080838081806880831092EB
:100F9000C1000895CF93DF93482F50E0CA018656D1
:100FA0009F4FFC0134914A575F4FFA018491882387
:100FB00069F190E0880F991FFC01E859FF4FA59156
:100FC000B491FC01EE58FF4FC591D491662351F4C2
:100FD0002FB7F8948C91932F909589238C938881C7
:100FE00089230BC0623061F42FB7F8948C91932F52
:100FF000909589238C938881832B88832FBF06C08B
:101000009FB7F8948C91832B8C939FBFDF91CF91E6
:101010000895482F50E0CA0182559F4FFC0124914A
:10102000CA0186569F4FFC0194914A575F4FFA01BF
:101030003491332309F440C0222351F1233071F05D
:10104000243028F42130A1F0223011F514C02630CC
:10105000B1F02730C1F02430D9F404C08091800071
:101060008F7703C0809180008F7D8093800010C0B7
:1010700084B58F7702C084B58F7D84BD09C080910F
:10108000B0008F7703C08091B0008F7D8093B00057
:10109000E32FF0E0EE0FFF1FEE58FF4FA591B49144
:1010A0002FB7F894662321F48C919095892302C080
:1010B0008C91892B8C932FBF0895CF93DF930E943F
:1010C0008F070E944D06C1EAD8E00E947303209763
:1010D000E1F30E94A108F9CF08951F920F920FB675
:1010E0000F9211242F933F934F938F939F93EF93DE
:1010F000FF934091C6002091F1013091F2012F5FE2
:101100003F4F2F7330708091F3019091F4012817B5
:10111000390759F0E091F101F091F201EF54FE4FDF
:1011200040833093F2012093F101FF91EF919F9161
:101130008F914F913F912F910F900FBE0F901F9065
:101140001895E0914502F0914602E05CFF4F8191D5
:10115000919120813181821B930B8F739070892B29
:1011600011F00E946C0808951F920F920FB60F9213
:1011700011242F933F938F939F93EF93FF9320918D
:10118000350230913602809137029091380228174B
:10119000390731F48091C1008F7D8093C10014C064
:1011A000E0913702F0913802EB50FE4F20818091A0
:1011B00037029091380201968F73907090933802A5
:1011C000809337022093C600FF91EF919F918F91FA
:1011D0003F912F910F900FBE0F901F901895AF92D7
:1011E000BF92DF92EF92FF920F931F93CF93DF9303
:1011F000EC017A018B01DD24403081EE580780E05C
:10120000680780E0780711F0DD24D39491E0A92EDF
:10121000B12CEC89FD89DD2069F0C5010E8C02C07E
:10122000880F991F0A94E2F7808360E079E08DE3EC
:1012300090E005C0108260E874E88EE190E0A801BB
:1012400097010E94940A21503040404050405695EA
:1012500047953795279580E12030380720F0DD202D
:1012600011F0DD24D6CFE889F9893083EA89FB893A
:101270002083EE89FF89408121E030E0C9010A8C9A
:1012800002C0880F991F0A94E2F7482B4083EE8929
:10129000FF894081C9010B8C02C0880F991F0A94F5
:1012A000E2F7482B4083EE89FF894081C9010C8C0D
:1012B00002C0880F991F0A94E2F7482B4083EE89F9
:1012C000FF8980810D8C02C0220F331F0A94E2F740
:1012D000209528232083DF91CF911F910F91FF90BC
:1012E000EF90DF90BF90AF900895DC011C96ED91D8
:1012F000FC911D97E05CFF4F21913191808191819C
:10130000281B390B2F733070C9010895DC011C961E
:10131000ED91FC911D97E05CFF4F20813181E054FD
:10132000F040DF01AE5BBF4F8D919C911197281764
:10133000390719F42FEF3FEF07C08D919C91E80F0B
:10134000F91F8081282F30E0C9010895DC011C9627
:10135000ED91FC911D97E05CFF4F20813181E054BD
:10136000F040DF01AE5BBF4F8D919C911197281724
:10137000390719F42FEF3FEF10C08D919C91119711
:10138000E80FF91F20818D919C91119701968F7321
:10139000907011969C938E9330E0C9010895FC01E2
:1013A00086859785DC01A05CBF4FFC01EE5BFF4F9B
:1013B0002D913C9111978081918128173907C1F7B0
:1013C0000895CF93DF93EC01EE85FF85E05CFF4F3E
:1013D00020813181E054F0402F5F3F4F2F733070F8
:1013E000DF01AE5BBF4F8D919C9111972817390794
:1013F000D1F3E05CFF4F80819181E054F040E80F31
:10140000F91F6083EE85FF85E05CFF4F3183208309
:10141000EE89FF89208181E090E00D8C02C0880F69
:10142000991F0A94E2F7282B208381E090E0DF9156
:10143000CF91089510923C0210923B0288EE93E007
:10144000A0E0B0E080933D0290933E02A0933F0263
:10145000B09340028FE291E090933A028093390278
:1014600081EB91E0909346028093450285EF91E0F5
:10147000909348028093470285EC90E090934A0253
:101480008093490284EC90E090934C0280934B024D
:1014900080EC90E090934E0280934D0281EC90E0BE
:1014A0009093500280934F0286EC90E0909352020A
:1014B0008093510284E08093530283E0809354022E
:1014C00087E08093550285E08093560281E0809307
:1014D00057020895CF92DF92EF92FF920F931F93DE
:1014E000CF93DF937C016B018A01C0E0D0E00FC095
:1014F000D6016D916D01D701ED91FC910190F081C4
:10150000E02DC7010995C80FD91F015010400115E2
:10151000110571F7CE01DF91CF911F910F91FF90CF
:10152000EF90DF90CF900895A1E21A2EAA1BBB1B6B
:10153000FD010DC0AA1FBB1FEE1FFF1FA217B3079F
:10154000E407F50720F0A21BB30BE40BF50B661FB5
:10155000771F881F991F1A9469F760957095809579
:1015600090959B01AC01BD01CF010895EE0FFF1FC7
:0C1570000590F491E02D0994F894FFCF51
:10157C0020005C020000010C000A0007000D000BAB
:10158C0000090005000600040803020F0D0E0C0BE9
:10159C00090A08000201030406050700000000E127
:0C15AC00096A0A7509A6098609CF090022
:00000001FF
