:100000000C9463000C948B000C948B000C948B006C
:100010000C948B000C948B000C948B000C948B0034
:100020000C948B000C948B000C948B000C948B0024
:100030000C948B000C948B000C948B000C948B0014
:100040000C94250C0C948B000C94280A0C946F0AC9
:100050000C948B000C948B000C948B000C948B00F4
:100060000C9459070C948B0000000000240027001A
:100070002A0000000000250028002B0000000000DE
:1000800023002600290004040404040404040202DA
:100090000202020203030303030301020408102007
:1000A0004080010204081020010204081020000012
:1000B0000007000201000003040600000000000029
:1000C0000000F505D50B11241FBECFEFD8E0DEBF31
:1000D000CDBF11E0A0E0B1E0E4EAF9E102C0059093
:1000E0000D92A833B107D9F712E0A8E3B1E001C03F
:1000F0001D92A83CB107E1F710E0C6ECD0E004C0C7
:100100002297FE010E94CC0CC23CD107C9F70E9485
:10011000180A0C94D00C0C940000CF93DF93BC0110
:100120008230910510F462E070E0A091C602B091B7
:10013000C702ED0140E050E0E0E0F0E021C088813E
:1001400099818617970769F48A819B81309719F006
:100150009383828304C09093C7028093C602FE01FA
:1001600034C06817790738F44115510519F0841720
:10017000950708F4AC01FE018A819B819C01E9018D
:100180002097E9F641155105A9F1CA01861B970B85
:10019000049708F4BA01E0E0F0E02AC08D919C9148
:1001A000119784179507F9F46417750781F412966F
:1001B0008D919C911397309719F09383828304C09B
:1001C0009093C7028093C602FD0132964CC0CA01CB
:1001D000861B970BFD01E80FF91F6193719302973E
:1001E0008D939C9340C0FD01828193819C01D90134
:1001F0001097A1F68091C4029091C502892B41F419
:1002000080910201909103019093C5028093C402F2
:1002100040910401509105014115510541F44DB73C
:100220005EB78091000190910101481B590B20910C
:10023000C4023091C502CA01821B930B861797072F
:1002400080F0AB014E5F5F4F8417950750F0420F6F
:10025000531F5093C5024093C402F90161937193F7
:1002600002C0E0E0F0E0CF01DF91CF910895CF939D
:10027000DF93009709F450C0EC0122971B821A8289
:10028000A091C602B091C702109709F140E050E07A
:10029000AC17BD0708F1BB83AA83FE012191319100
:1002A000E20FF31FAE17BF0779F48D919C91119760
:1002B000280F391F2E5F3F4F3983288312968D9167
:1002C0009C9113979B838A834115510571F4D093B8
:1002D000C702C093C60220C012968D919C911397BD
:1002E000AD01009711F0DC01D3CFFA01D383C283B3
:1002F00021913191E20FF31FCE17DF0769F4888156
:100300009981280F391F2E5F3F4FFA0131832083D7
:100310008A819B8193838283DF91CF9108951F937C
:10032000182F885C833028F48CE992E06AEC0E94F4
:100330009C0B8CE992E0612F0E949C0B1F91089509
:10034000AF92BF92CF92DF92EF92FF920F931F93E3
:10035000CF93DF936C01F62EE42E5901E8018CE96E
:1003600092E068EC0E949C0B8D2DBE010E948F01D3
:100370000C2D8C2DBE010E948F018F2DBE010E947D
:100380008F010F250D250E258E2DBE010E948F0198
:1003900010E008C0EA0DFB1D808108271F5FBE0129
:1003A0000E948F01E12FF0E0EC15FD0598F3802FFE
:1003B000BE010E948F018CE992E069EC0E949C0BC7
:1003C000DF91CF911F910F91FF90EF90DF90CF9031
:1003D000BF90AF9008958CE992E00E94300B882383
:1003E000D1F38CE992E00E94610B08950F931F9363
:1003F000CF93DF93EC018B010E94EB01F801808326
:10040000893C29F08A3C49F0883C61F403C021E032
:1004100030E00AC020E030E007C0CE010E94EB01CE
:10042000F801808322E030E0C901DF91CF911F9174
:100430000F9108952F923F924F925F926F927F9209
:100440008F929F92AF92BF92CF92DF92EF92FF92E4
:100450000F931F93DF93CF93CDB7DEB727970FB6D8
:10046000F894DEBF0FBECDBF4C018B017A0159015C
:100470002DB73EB73D832C833DB73E838EB78F8328
:100480008CE992E00E94300B882309F495C0012B7F
:1004900039F48CE992E00E94610B883C09F08CC031
:1004A00083E0482E512C4C0E5D1EC701B2010E9404
:1004B000F601B401A70195010E940403882309F401
:1004C0007BC0DB80C701B2010E94F601B401A70125
:1004D00095010E940403882309F46EC00B819D2DB1
:1004E00080E03C01600E711CC3010196EDB7FEB7C0
:1004F000E81BF90B0FB6F894FEBF0FBEEDBF2DB68B
:100500003EB60894211C311CC701BE016F5F7F4FAE
:100510000E94F601B401A70195010E9404038823FB
:1005200009F44AC01981C701BE016E5F7F4F0E9466
:10053000F601B401A70195010E9404038823E1F1AB
:10054000D026D1268A81D826CC24C201542C492E0B
:1005500013C0C701652D742D0E94F601B401A701D7
:1005600095010E940403882339F18B81020D131D2C
:10057000F8018083C394D8260C2D10E006151705CA
:1005800040F3C701652D742D0E94F601B401A70147
:1005900095010E940403882379F08B81D81661F4B9
:1005A000C7010E94EB01893C39F4C30169814A818A
:1005B00091018501F40109958E819F819C010FB6FF
:1005C000F8943EBF0FBE2DBF2C813D810FB6F8942D
:1005D0003EBF0FBE2DBF27960FB6F894DEBF0FBEED
:1005E000CDBFCF91DF911F910F91FF90EF90DF90E2
:1005F000CF90BF90AF909F908F907F906F905F90C3
:100600004F903F902F9008958130910581F0823076
:10061000910519F0892B19F009C081E00895CB01EB
:1006200061E070E00E941A0280E00895089580E081
:100630000895EF92FF920F931F939C01F62EE42EE4
:100640000AE911E0C801B9010E94BB05C8016F2D7C
:100650000E943D06C8016E2D0E943D06C8010E9401
:1006600080061F910F91FF90EF9008950F931F93B5
:10067000182F062F8AE590E06EE540E00E941903EE
:100680008AE590E06BE241E00E9419038AE590E080
:100690006CE241E00E9419038AE590E06DE240E0DF
:1006A0000E9419038AE590E06EE240E00E9419037F
:1006B0008AE590E06FE241E00E9419038AE590E04C
:1006C00060E341E00E9419038AE590E061E34FEFA7
:1006D0000E9419038AE590E062E342E00E94190358
:1006E0008AE590E061E4412F0E9419038AE590E0D9
:1006F00062E4402F0E9419038AE590E063E4412FF1
:100700000E9419038AE590E064E4402F0E941903D7
:100710008AE590E065E4412F0E9419038AE590E0A4
:1007200066E4402F0E9419038AE590E067E4412FB8
:100730000E9419038AE590E068E4402F0E941903A3
:100740008AE590E069E4412F0E9419038AE590E070
:100750006AE4402F0E9419038AE590E06BE4412F80
:100760000E9419038AE590E06CE4402F0E9419036F
:100770008AE590E06DE4412F0E9419038AE590E03C
:100780006EE4402F0E9419038AE590E06FE4412F48
:100790000E9419038AE590E060E5402F0E9419034A
:1007A0008AE590E061E5412F0E9419038AE590E017
:1007B00062E5402F0E9419038AE590E063E5412F2E
:1007C0000E9419038AE590E064E5402F0E94190316
:1007D0008AE590E065E5412F0E9419038AE590E0E3
:1007E00066E5402F0E9419038AE590E067E5412FF6
:1007F0000E9419038AE590E068E5402F0E941903E2
:100800008AE590E06DE544E00E9419038AE590E0F6
:100810006EE54CE00E9419038AE590E06EE54CE03D
:100820000E9419031F910F910895FF920F931F9338
:10083000182F062FF42E60E00E940809812F61E036
:100840000E9447098AE991E00E949506802F6F2D4A
:100850000E9436031F910F91FF9008957F928F920F
:100860009F92AF92BF92CF92DF92EF92FF920F933F
:100870001F93CF93DF934C016B01842F0E949B0940
:10088000882309F042C08AE991E06AE570E042E01D
:1008900050E00E9491068AE991E00E94CE05182F4F
:1008A0008AE991E00E94CE05382F20E0E12EFF2456
:1008B000E22AF32A08E311E0C0E0D0E081E0A82EAC
:1008C000B12C77247394C5010C2E02C0880F991F98
:1008D0000A94E2F78E219F21F8012081892B41F0B3
:1008E000222319F48C2FF4010995F801708207C0B6
:1008F000222319F08C2FF6010995F8011082219618
:100900000F5F1F4FCC30D105F1F6DF91CF911F91D2
:100910000F91FF90EF90DF90CF90BF90AF909F909E
:100920008F907F90089589EF94E065ED74E042E048
:100930000E942E048BE995E060E070E040E050E01A
:1009400020E030E00E941A020895EF92FF920F9388
:100950001F93CF93DF93FB0180818823F9F481817A
:1009600007E011E0C0E0D0E0E82EFF24C7010C2E24
:1009700002C0959587950A94E2F780FF04C0F801BC
:10098000808161E003C0F801808160E00E94470936
:1009900021960E5F1F4FC830D10541F7DF91CF91EF
:1009A0001F910F91FF90EF9008950F931F93DF9386
:1009B000CF9300D000D00F92CDB7DEB7FE013196B5
:1009C00095E0DF011D929A95E9F78D8385E090E02F
:1009D00062E044E09F0100E010E00E94A0010F905F
:1009E0000F900F900F900F90CF91DF911F910F916B
:1009F00008950F931F93DF93CF9300D000D00F92F1
:100A0000CDB7DEB7FE01319695E0DF011D929A95D4
:100A1000E9F78D8385E090E062E043E09F0100E02C
:100A200010E00E94A0010F900F900F900F900F9078
:100A3000CF91DF911F910F9108950F931F93DF9333
:100A4000CF93CDB7DEB7EE970FB6F894DEBF0FBEEB
:100A5000CDBFFE0131968EE3DF011D928A95E9F745
:100A600082E08A8B33E03C8B91E09E8B9F8B24E06D
:100A7000298F87E08C8F88E08BA32DA39FA398A755
:100A80003AA78AE08DA79DAB8CE08FAB8EE390E018
:100A900060E041E09F0100E010E00E94A001EE96BE
:100AA0000FB6F894DEBF0FBECDBFCF91DF911F917F
:100AB0000F910895CF93DF93C7E0D1E0888161E083
:100AC0000E940809229681E0C731D807B9F7DF9163
:100AD000CF9108958CE992E040E855E260E070E043
:100AE0000E94AA0A0E945A054091060182E090E005
:100AF000642F0E941504E4E4F1E011821082138255
:100B000012821582148217821682389681E0E435AB
:100B1000F80799F78DE195E09093450180934401A2
:100B200085EA94E090934F0180934E018DE061E05F
:100B30000E9447090895CF93DF93E9016230A8F43A
:100B4000443098F4E62FF0E0EE0FFF1FEE0FFF1F8A
:100B5000E40FF11DEE0FFF1FEC5BFE4F0190F081E3
:100B6000E02D309711F0BE010995CE010E943701AA
:100B7000DF91CF91089581E0809399016093760190
:100B8000109297011092980108952091750130E01C
:100B900080917401281B3109C901089540917401A5
:100BA00080917501481718F02FEF3FEF0AC0E42F2E
:100BB000F0E0EC5AFE4F8081282F30E04F5F4093E9
:100BC0007401C9010895E091740180917501E817DD
:100BD00018F0EFEFFFEF06C0F0E0EC5AFE4F808117
:100BE000E82FF0E0CF010895089510929D01109232
:100BF0009C0188EE93E0A0E0B0E080939E0190938A
:100C00009F01A093A001B093A1018BE191E090938B
:100C10009B0180939A010895CF92DF92EF92FF9209
:100C20000F931F93CF93DF937C016B018A01809117
:100C300099018823A1F0C0E0D0E00DC0D701ED916B
:100C4000FC91D601AC0FBD1F0190F081E02DC701D2
:100C50006C9109952196C017D10780F304C0CB0190
:100C6000642F0E943E07C801DF91CF911F910F9121
:100C7000FF90EF90DF90CF900895DF93CF930F9286
:100C8000CDB7DEB7FC016983809199018823C9F053
:100C900080919801803238F081E090E093838283E4
:100CA00020E030E015C080919701E82FF0E0E9588E
:100CB000FE4F998190838F5F809397018093980175
:100CC00005C0CE01019661E00E943E0721E030E0C0
:100CD000C9010F90CF91DF9108950F93062F809156
:100CE000760167E771E04091980121E00E94E906F2
:100CF0001092970110929801109299010F91089506
:100D000061E00E946D060895413208F040E2862FAE
:100D100064E571E00E94A006109274018093750151
:100D2000089521E00E9484060895109274011092A3
:100D3000750110929701109298010E94EA08089597
:100D4000382F413210F040E042C08091A601882344
:100D5000E1F791E09093A6012093A8018FEF809393
:100D600013021092CE0141504093CF014F5F9093F8
:100D7000A7018091A701330F832B8093A701809156
:100D8000A901813041F41092A9018091A7018093BB
:100D9000BB0085EC01C085EE8093BC008091A6016C
:100DA0008130E1F38091CE01841710F44091CE019F
:100DB00020E030E00AC0FB01E20FF31FD901A25589
:100DC000BE4F8C9180832F5F3F4F2417A0F3842F59
:100DD00008950F931F93582F122F413210F081E086
:100DE0004AC08091A6018823E1F782E08093A601A2
:100DF0000093A8018FEF809313021092CE014093CD
:100E0000CF01AEEAB1E0FB0102C081918D938E2F3C
:100E1000861B8417D0F31092A7018091A701550F6C
:100E2000852B8093A7018091A901813041F4109214
:100E3000A9018091A7018093BB0085EC01C085EEDC
:100E40008093BC00112321F08091A6018230E1F350
:100E5000809113028F3F11F480E00DC08091130246
:100E6000803211F482E007C080911302803311F0C8
:100E700084E001C083E01F910F910895482F6132F3
:100E800010F081E008958091A601843011F082E095
:100E900008956093F101A0EDB1E0842F9C01F90168
:100EA00002C081918D938E2F841B8617D0F380E032
:100EB00008951F920F920FB60F9211242F933F9314
:100EC0004F935F936F937F938F939F93AF93BF9352
:100ED000EF93FF938091B90090E0887F9070803607
:100EE000910509F4F2C081369105CCF5883291055F
:100EF00009F47BC089329105B4F48031910509F47D
:100F00006FC0813191053CF4009709F447C10897FF
:100F100009F04FC165C08831910509F466C080971A
:100F200009F047C182C08034910509F4A4C081341E
:100F3000910544F48033910509F482C0C89709F003
:100F400038C189C08035910509F489C0883591057B
:100F500009F496C08834910509F02BC1AEC08839D8
:100F6000910509F413C189399105ECF4883791058D
:100F700009F4ABC0893791054CF48836910509F422
:100F8000A4C08037910509F014C19FC0883891052D
:100F900009F4FCC08039910509F49DC080389105A1
:100FA00009F007C198C0803B910509F4C6C0813B98
:100FB00091054CF4803A910509F49FC0883A910557
:100FC00009F0F7C0BAC0803C910509F4E3C0883C41
:100FD000910509F4DFC0883B910509F0EAC0C2C061
:100FE0008091A7018093BB00CFC09091CE018091EA
:100FF000CF01981768F49091CE01E92FF0E0E25507
:10100000FE4F80818093BB009F5F9093CE01BCC058
:101010008091A801882309F44BC085ED8093BC0022
:101020008091BC0084FDFCCFC2C080E2809313029B
:1010300085ED8093BC008091BC0084FDFCCFB7C0DF
:1010400080E38093130285ED8093BC008091BC0007
:1010500084FDFCCFACC088E3809313029BC08091D9
:10106000CE019091BB00E82FF0E0E255FE4F908357
:101070008F5F8093CE019091CE018091CF0182C08D
:101080008091CE019091BB00E82FF0E0E255FE4F39
:1010900090838F5F8093CE018091A801882341F0D7
:1010A00085ED8093BC008091BC0084FDFCCF7FC0A7
:1010B00081E08093A90184EA6EC085ED8093BC0035
:1010C0008091BC0084FDFCCF72C083E08093A601B8
:1010D0001092120259C080911202803208F056C05C
:1010E000809112029091BB00E82FF0E0EE50FE4F8D
:1010F00090838F5F8093120247C0809112028032EA
:1011000030F4E0911202F0E0EE50FE4F108285EDD7
:101110008093BC008091BC0084FDFCCF1092A6019E
:1011200060911202E091AC01F091AD0182EF91E08B
:1011300070E00995109212022DC084E08093A60100
:101140001092F0011092F101E091AA01F091AB012F
:1011500009958091F101882329F481E08093F101C0
:101160001092D0019091F001E92FF0E0E053FE4F92
:1011700080818093BB009F5F9093F0019091F0017C
:101180008091F101981710F485EC01C085E88093F7
:10119000BC000FC085EC8093BC0009C01092130204
:1011A00085ED8093BC008091BC0084FDFCCF109243
:1011B000A601FF91EF91BF91AF919F918F917F9188
:1011C0006F915F914F913F912F910F900FBE0F90B4
:1011D0001F9018951092A60181E08093A8011092AB
:1011E000A90182E161E00E94470983E161E00E9478
:1011F0004709E9EBF0E080818E7F808380818D7FDD
:10120000808388E48093B80085E48093BC000895CF
:10121000CF93DF93482F50E0CA0186569F4FFC01C1
:1012200034914A575F4FFA018491882369F190E025
:10123000880F991FFC01E859FF4FA591B491FC015B
:10124000EE58FF4FC591D491662351F42FB7F8940F
:101250008C91932F909589238C93888189230BC03F
:10126000623061F42FB7F8948C91932F9095892375
:101270008C938881832B88832FBF06C09FB7F894F7
:101280008C91832B8C939FBFDF91CF910895482F32
:1012900050E0CA0182559F4FFC012491CA01865635
:1012A0009F4FFC0194914A575F4FFA0134913323C9
:1012B00009F440C0222351F1233071F0243028F486
:1012C0002130A1F0223011F514C02630B1F02730C2
:1012D000C1F02430D9F404C0809180008F7703C01E
:1012E000809180008F7D8093800010C084B58F77BF
:1012F00002C084B58F7D84BD09C08091B0008F7716
:1013000003C08091B0008F7D8093B000E32FF0E0A8
:10131000EE0FFF1FEE58FF4FA591B4912FB7F89431
:10132000662321F48C919095892302C08C91892B9E
:101330008C932FBF0895682F70E0CB0182559F4F8B
:10134000FC012491CB0186569F4FFC0144916A57C2
:101350007F4FFB019491992319F420E030E03CC0C9
:10136000222351F1233071F0243028F42130A1F0F0
:10137000223011F514C02630B1F02730C1F02430EE
:10138000D9F404C0809180008F7703C080918000E1
:101390008F7D8093800010C084B58F7702C084B5A4
:1013A0008F7D84BD09C08091B0008F7703C080918C
:1013B000B0008F7D8093B000892F90E0880F991F37
:1013C00084589F4FFC01A591B4918C9120E030E0AE
:1013D000842311F021E030E0C9010895CF92DF921B
:1013E000EF92FF920F931F93CF93DF937C016B01DA
:1013F0008A01C0E0D0E00FC0D6016D916D01D70128
:10140000ED91FC910190F081E02DC7010995C80F85
:10141000D91F015010400115110571F7CE01DF9160
:10142000CF911F910F91FF90EF90DF90CF90089593
:10143000CF93DF930E946D0C0E946A05CCE5DAE041
:101440000E9493042097E1F30E945C0AF9CF08956B
:101450001F920F920FB60F9211242F933F934F9329
:101460008F939F93EF93FF934091C6002091540276
:10147000309155022F5F3F4F2F733070809156028D
:10148000909157022817390759F0E0915402F091D2
:101490005502EC5EFD4F4083309355022093540279
:1014A000FF91EF919F918F914F913F912F910F90CD
:1014B0000FBE0F901F901895E091A802F091A9021D
:1014C000E05CFF4F8191919120813181821B930BD0
:1014D0008F739070892B11F00E94270A08951F9234
:1014E0000F920FB60F9211242F933F938F939F93D8
:1014F000EF93FF93209198023091990280919A0284
:1015000090919B022817390731F48091C1008F7D9B
:101510008093C10014C0E0919A02F0919B02E85AB6
:10152000FD4F208180919A0290919B0201968F73CA
:10153000907090939B0280939A022093C600FF9133
:10154000EF919F918F913F912F910F900FBE0F9030
:101550001F901895AF92BF92DF92EF92FF920F9378
:101560001F93CF93DF93EC017A018B01DD24403090
:1015700081EE580780E0680780E0780711F0DD24ED
:10158000D39491E0A92EB12CEC89FD89DD2069F07E
:10159000C5010E8C02C0880F991F0A94E2F7808360
:1015A00060E079E08DE390E005C0108260E874E8C7
:1015B0008EE190E0A80197010E94A80C21503040D4
:1015C00040405040569547953795279580E120300B
:1015D000380720F0DD2011F0DD24D6CFE889F98925
:1015E0003083EA89FB892083EE89FF89408121E0ED
:1015F00030E0C9010A8C02C0880F991F0A94E2F7F3
:10160000482B4083EE89FF894081C9010B8C02C0C1
:10161000880F991F0A94E2F7482B4083EE89FF89CF
:101620004081C9010C8C02C0880F991F0A94E2F70F
:10163000482B4083EE89FF8980810D8C02C0220FE8
:10164000331F0A94E2F7209528232083DF91CF915E
:101650001F910F91FF90EF90DF90BF90AF90089592
:10166000DC011C96ED91FC911D97E05CFF4F2191F0
:10167000319180819181281B390B2F733070C90102
:101680000895DC011C96ED91FC911D97E05CFF4FE5
:1016900020813181E054F040DF01AE5BBF4F8D917E
:1016A0009C9111972817390719F42FEF3FEF07C0C6
:1016B0008D919C91E80FF91F8081282F30E0C9019E
:1016C0000895DC011C96ED91FC911D97E05CFF4FA5
:1016D00020813181E054F040DF01AE5BBF4F8D913E
:1016E0009C9111972817390719F42FEF3FEF10C07D
:1016F0008D919C911197E80FF91F20818D919C91FC
:10170000119701968F73907011969C938E9330E091
:10171000C9010895FC0186859785DC01A05CBF4F57
:10172000FC01EE5BFF4F2D913C91119780819181DF
:1017300028173907C1F70895CF93DF93EC01EE85A1
:10174000FF85E05CFF4F20813181E054F0402F5F46
:101750003F4F2F733070DF01AE5BBF4F8D919C9177
:10176000119728173907D1F3E05CFF4F80819181F1
:10177000E054F040E80FF91F6083EE85FF85E05CE0
:10178000FF4F31832083EE89FF89208181E090E043
:101790000D8C02C0880F991F0A94E2F7282B208332
:1017A00081E090E0DF91CF91089510929F02109216
:1017B0009E0288EE93E0A0E0B0E08093A0029093B8
:1017C000A102A093A202B093A3028BE291E09093B6
:1017D0009D0280939C0284E192E09093A902809301
:1017E000A80288E592E09093AB028093AA0285EC70
:1017F00090E09093AD028093AC0284EC90E09093E3
:10180000AF028093AE0280EC90E09093B10280939F
:10181000B00281EC90E09093B3028093B20286EC28
:1018200090E09093B5028093B40284E08093B60276
:1018300083E08093B70287E08093B80285E08093CD
:10184000B90281E08093BA0208951F920F920FB6F9
:101850000F9211242F933F938F939F93AF93BF9336
:101860008091BF029091C002A091C102B091C202CA
:101870003091C3020196A11DB11D232F2D5F2D377D
:1018800020F02D570196A11DB11D2093C302809316
:10189000BF029093C002A093C102B093C202809194
:1018A000BB029091BC02A091BD02B091BE02019614
:1018B000A11DB11D8093BB029093BC02A093BD02F9
:1018C000B093BE02BF91AF919F918F913F912F91A5
:1018D0000F900FBE0F901F901895789484B582607A
:1018E00084BD84B5816084BD85B5826085BD85B5C4
:1018F000816085BDEEE6F0E0808181608083E1E873
:10190000F0E01082808182608083808181608083AA
:10191000E0E8F0E0808181608083E1EBF0E08081AD
:1019200084608083E0EBF0E0808181608083EAE77F
:10193000F0E0808184608083808182608083808108
:10194000816080838081806880831092C1000895C7
:10195000A1E21A2EAA1BBB1BFD010DC0AA1FBB1FB3
:10196000EE1FFF1FA217B307E407F50720F0A21B25
:10197000B30BE40BF50B661F771F881F991F1A9492
:1019800069F760957095809590959B01AC01BD01BC
:10199000CF010895EE0FFF1F0590F491E02D0994FB
:0419A000F894FFCFE9
:1019A4002000C8020000040D000C000B000A00090E
:1019B40000080007000600000000003D060C06C5F4
:1019C40005CE05E305F405000000009C0BEE09308C
:0819D4000B610B410B8A0B00B3
:00000001FF
