:100000000C9463000C948B000C948B000C948B006C
:100010000C948B000C948B000C948B000C948B0034
:100020000C948B000C948B000C948B000C948B0024
:100030000C948B000C948B000C948B000C948B0014
:100040000C94020C0C948B000C94050A0C944C0A32
:100050000C948B000C948B000C948B000C948B00F4
:100060000C9436070C948B0000000000240027003D
:100070002A0000000000250028002B0000000000DE
:1000800023002600290004040404040404040202DA
:100090000202020203030303030301020408102007
:1000A0004080010204081020010204081020000012
:1000B0000007000201000003040600000000000029
:1000C0000000D205B20B11241FBECFEFD8E0DEBF77
:1000D000CDBF11E0A0E0B1E0EEE5F9E102C005908E
:1000E0000D92A633B107D9F712E0A6E3B1E001C043
:1000F0001D92A63CB107E1F710E0C6ECD0E004C0C9
:100100002297FE010E94A90CC23CD107C9F70E94A8
:10011000F5090C94AD0C0C940000CF93DF93BC0157
:100120008230910510F462E070E0A091C402B091B9
:10013000C502ED0140E050E0E0E0F0E021C0888140
:1001400099818617970769F48A819B81309719F006
:100150009383828304C09093C5028093C402FE01FE
:1001600034C06817790738F44115510519F0841720
:10017000950708F4AC01FE018A819B819C01E9018D
:100180002097E9F641155105A9F1CA01861B970B85
:10019000049708F4BA01E0E0F0E02AC08D919C9148
:1001A000119784179507F9F46417750781F412966F
:1001B0008D919C911397309719F09383828304C09B
:1001C0009093C5028093C402FD0132964CC0CA01CF
:1001D000861B970BFD01E80FF91F6193719302973E
:1001E0008D939C9340C0FD01828193819C01D90134
:1001F0001097A1F68091C2029091C302892B41F41D
:1002000080910201909103019093C3028093C202F6
:1002100040910401509105014115510541F44DB73C
:100220005EB78091000190910101481B590B20910C
:10023000C2023091C302CA01821B930B8617970733
:1002400080F0AB014E5F5F4F8417950750F0420F6F
:10025000531F5093C3024093C202F90161937193FB
:1002600002C0E0E0F0E0CF01DF91CF910895CF939D
:10027000DF93009709F450C0EC0122971B821A8289
:10028000A091C402B091C502109709F140E050E07E
:10029000AC17BD0708F1BB83AA83FE012191319100
:1002A000E20FF31FAE17BF0779F48D919C91119760
:1002B000280F391F2E5F3F4F3983288312968D9167
:1002C0009C9113979B838A834115510571F4D093B8
:1002D000C502C093C40220C012968D919C911397C1
:1002E000AD01009711F0DC01D3CFFA01D383C283B3
:1002F00021913191E20FF31FCE17DF0769F4888156
:100300009981280F391F2E5F3F4FFA0131832083D7
:100310008A819B8193838283DF91CF910895EF92AD
:10032000FF920F931F939C01F62EE42E08E911E033
:10033000C801B9010E949805C8016F2D0E941A06D4
:10034000C8016E2D0E941A06C8010E945D061F9109
:100350000F91FF90EF9008958AE590E06EE540E000
:100360000E948F018AE590E06BE241E00E948F01DC
:100370008AE590E06CE241E00E948F018AE590E01E
:100380006DE240E00E948F018AE590E06EE240E07D
:100390000E948F018AE590E06FE241E00E948F01A8
:1003A0008AE590E060E341E00E948F018AE590E0F9
:1003B00061E34FEF0E948F018AE590E062E342E043
:1003C0000E948F018AE590E061E441E00E948F0184
:1003D0008AE590E062E441E00E948F018AE590E0C6
:1003E00063E441E00E948F018AE590E064E441E02B
:1003F0000E948F018AE590E065E441E00E948F0150
:100400008AE590E066E441E00E948F018AE590E091
:1004100067E441E00E948F018AE590E068E441E0F2
:100420000E948F018AE590E069E441E00E948F011B
:100430008AE590E06AE441E00E948F018AE590E05D
:100440006BE441E00E948F018AE590E06CE441E0BA
:100450000E948F018AE590E06DE441E00E948F01E7
:100460008AE590E06EE441E00E948F018AE590E029
:100470006FE441E00E948F018AE590E060E541E091
:100480000E948F018AE590E061E541E00E948F01C2
:100490008AE590E062E541E00E948F018AE590E004
:1004A00063E541E00E948F018AE590E064E541E068
:1004B0000E948F018AE590E065E541E00E948F018E
:1004C0008AE590E066E541E00E948F018AE590E0D0
:1004D00067E541E00E948F018AE590E068E541E030
:1004E0000E948F018AE590E06DE544E00E948F0153
:1004F0008AE590E06EE54CE00E948F018AE590E08D
:100500006EE54CE00E948F0108951F93182F60E064
:100510000E94E508812F61E00E94240988E991E0AA
:100520000E9472060E94AC011F9108957F928F92E3
:100530009F92AF92BF92CF92DF92EF92FF920F9372
:100540001F93CF93DF934C016B01842F0E94780996
:10055000882309F042C088E991E06AE570E042E052
:1005600050E00E946E0688E991E00E94AB05182FCA
:1005700088E991E00E94AB05382F20E0E12EFF24AE
:10058000E22AF32A06E311E0C0E0D0E081E0A82EE1
:10059000B12C77247394C5010C2E02C0880F991FCB
:1005A0000A94E2F78E219F21F8012081892B41F0E6
:1005B000222319F48C2FF4010995F801708207C0E9
:1005C000222319F08C2FF6010995F801108221964B
:1005D0000F5F1F4FCC30D105F1F6DF91CF911F9106
:1005E0000F91FF90EF90DF90CF90BF90AF909F90D2
:1005F0008F907F9008951F93182F885C833028F484
:100600008AE992E06AEC0E94790B8AE992E0612F14
:100610000E94790B1F910895AF92BF92CF92DF9203
:10062000EF92FF920F931F93CF93DF936C01F62EFF
:10063000E42E5901E8018AE992E068EC0E94790B06
:100640008D2DBE010E94FB020C2D8C2DBE010E943F
:10065000FB028F2DBE010E94FB020F250D250E25EA
:100660008E2DBE010E94FB0210E008C0EA0DFB1DAA
:10067000808108271F5FBE010E94FB02E12FF0E08E
:10068000EC15FD0598F3802FBE010E94FB028AE95C
:1006900092E069EC0E94790BDF91CF911F910F914D
:1006A000FF90EF90DF90CF90BF90AF9008958AE9D0
:1006B00092E00E940D0B8823D1F38AE992E00E9418
:1006C0003E0B08950F931F93CF93DF93EC018B01A3
:1006D0000E945703F8018083893C29F08A3C49F045
:1006E000883C61F403C021E030E00AC020E030E043
:1006F00007C0CE010E945703F801808322E030E05A
:10070000C901DF91CF911F910F9108952F923F92D0
:100710004F925F926F927F928F929F92AF92BF9211
:10072000CF92DF92EF92FF920F931F93DF93CF93BD
:10073000CDB7DEB729970FB6F894DEBF0FBECDBF99
:100740004C018B016A0159012DB73EB73F832E83BF
:100750003DB738878EB789878AE992E00E940D0BF2
:10076000882309F489C0012B39F48AE992E00E94B8
:100770003E0B883C09F080C083E0682E712C6C0E23
:100780007D1EC601B3010E946203B401A60195015A
:100790000E946404882309F46FC0FB80C601B30182
:1007A0000E946203B401A60195010E94640488239B
:1007B00009F462C00B819F2D80E01C01200E311CCA
:1007C00021010894411C511CEDB7FEB7E419F5094D
:1007D0000FB6F894FEBF0FBEEDBF2DB73EB72F5F2B
:1007E0003F4F3D832C83C601BE016F5F7F4F0E9448
:1007F0006203B401A60195010E9464048823E1F11B
:100800001981C601BE016E5F7F4F0E946203B40171
:10081000A60195010E946404882371F1F026F12657
:100820008A81F826EE2414C0C601B3010E94620337
:10083000B401A60195010E9464048823E9F08B812C
:10084000EC81FD810E0F1F1FF8018083E394F826D1
:100850000E2D10E00415150538F3FF2069F4C601CC
:100860000E945703893C41F4C10169814A812C816E
:100870003D818501F4010995888599859C010FB614
:10088000F8943EBF0FBE2DBF2E813F810FB6F89466
:100890003EBF0FBE2DBF29960FB6F894DEBF0FBE28
:1008A000CDBFCF91DF911F910F91FF90EF90DF901F
:1008B000CF90BF90AF909F908F907F906F905F9000
:1008C0004F903F902F9008958130910581F08230B4
:1008D000910519F0892B19F009C081E00895CB0129
:1008E00061E070E00E94860380E00895089580E052
:1008F00008958FED94E06BEB74E042E00E94960265
:1009000088E795E060E070E040E050E020E030E013
:100910000E9486030895EF92FF920F931F93CF9347
:10092000DF93FB0180818823F9F4818106E011E0E7
:10093000C0E0D0E0E82EFF24C7010C2E02C0959540
:1009400087950A94E2F780FF04C0F801808161E096
:1009500003C0F801808160E00E94240921960E5FA7
:100960001F4FC830D10541F7DF91CF911F910F91F3
:10097000FF90EF9008950F931F93DF93CF9300D0D4
:1009800000D00F92CDB7DEB7FE01319695E0DF01C2
:100990001D929A95E9F78D8385E090E062E044E04E
:1009A0009F0100E010E00E940C030F900F900F9049
:1009B0000F900F90CF91DF911F910F9108950F939A
:1009C0001F93DF93CF9300D000D00F92CDB7DEB747
:1009D000FE01319695E0DF011D929A95E9F78D832E
:1009E00085E090E062E043E09F0100E010E00E94BB
:1009F0000C030F900F900F900F900F90CF91DF91FD
:100A00001F910F9108950F931F93DF93CF93CDB74D
:100A1000DEB7E4970FB6F894DEBF0FBECDBFFE0180
:100A2000319684E3DF011D928A95E9F782E08A8B93
:100A300083E08C8B87E08F8B88E08E8F84E088A3A7
:100A40008AE08BA381E08BA78CE08DA784E390E004
:100A500060E041E09F0100E010E00E940C03E4969A
:100A60000FB6F894DEBF0FBECDBFCF91DF911F91BF
:100A70000F910895CF93DF93C6E0D1E0888161E0C4
:100A80000E94E508229681E0C631D807B9F7DF91C8
:100A9000CF9108958AE992E040E855E260E070E085
:100AA0000E94870A0E943A0582E090E00E94850237
:100AB000E2E4F1E011821082138212821582148224
:100AC00017821682389681E0E235F80799F783E0BD
:100AD00095E090934301809342018BE894E09093DA
:100AE0004D0180934C018DE061E00E94240908953E
:100AF000CF93DF93E9016230A8F4443098F4E62FF5
:100B0000F0E0EE0FFF1FEE0FFF1FE40FF11DEE0FE1
:100B1000FF1FEE5BFE4F0190F081E02D309711F04A
:100B2000BE010995CE010E943701DF91CF91089552
:100B300081E0809397016093740110929501109267
:100B4000960108952091730130E080917201281B75
:100B50003109C901089540917201809173014817CC
:100B600018F02FEF3FEF0AC0E42FF0E0EE5AFE4FEF
:100B70008081282F30E04F5F40937201C9010895B2
:100B8000E091720180917301E81718F0EFEFFFEF29
:100B900006C0F0E0EE5AFE4F8081E82FF0E0CF0172
:100BA0000895089510929B0110929A0188EE93E0A7
:100BB000A0E0B0E080939C0190939D01A0939E01E2
:100BC000B0939F018AE191E09093990180939801FD
:100BD0000895CF92DF92EF92FF920F931F93CF93DE
:100BE000DF937C016B018A01809197018823A1F03A
:100BF000C0E0D0E00DC0D701ED91FC91D601AC0F63
:100C0000BD1F0190F081E02DC7016C9109952196DF
:100C1000C017D10780F304C0CB01642F0E941B07CB
:100C2000C801DF91CF911F910F91FF90EF90DF905E
:100C3000CF900895DF93CF930F92CDB7DEB7FC012D
:100C40006983809197018823C9F080919601803251
:100C500038F081E090E09383828320E030E015C09B
:100C600080919501E82FF0E0EB58FE4F9981908339
:100C70008F5F809395018093960105C0CE01019608
:100C800061E00E941B0721E030E0C9010F90CF9185
:100C9000DF9108950F93062F8091740165E771E04D
:100CA0004091960121E00E94C60610929501109293
:100CB0009601109297010F91089561E00E944A06F3
:100CC0000895413208F040E2862F62E571E00E940B
:100CD0007D061092720180937301089521E00E94B5
:100CE000610608951092720110927301109295019D
:100CF000109296010E94C7080895382F413210F0D3
:100D000040E042C08091A4018823E1F791E09093F4
:100D1000A4012093A6018FEF809311021092CC01C1
:100D200041504093CD014F5F9093A5018091A50163
:100D3000330F832B8093A5018091A701813041F46B
:100D40001092A7018091A5018093BB0085EC01C0A2
:100D500085EE8093BC008091A4018130E1F3809105
:100D6000CC01841710F44091CC0120E030E00AC09F
:100D7000FB01E20FF31FD901A455BE4F8C91808374
:100D80002F5F3F4F2417A0F3842F08950F931F93D5
:100D9000582F122F413210F081E04AC08091A401F7
:100DA0008823E1F782E08093A4010093A6018FEFEE
:100DB000809311021092CC014093CD01ACEAB1E0D6
:100DC000FB0102C081918D938E2F861B8417D0F377
:100DD0001092A5018091A501550F852B8093A50147
:100DE0008091A701813041F41092A7018091A50163
:100DF0008093BB0085EC01C085EE8093BC0011237D
:100E000021F08091A4018230E1F3809111028F3FA3
:100E100011F480E00DC080911102803211F482E063
:100E200007C080911102803311F084E001C083E09B
:100E30001F910F910895482F613210F081E00895BD
:100E40008091A401843011F082E008956093EF0155
:100E5000AEECB1E0842F9C01F90102C081918D9329
:100E60008E2F841B8617D0F380E008951F920F9277
:100E70000FB60F9211242F933F934F935F936F936D
:100E80007F938F939F93AF93BF93EF93FF93809143
:100E9000B90090E0887F90708036910509F4F2C027
:100EA00081369105CCF58832910509F47BC08932F1
:100EB0009105B4F48031910509F46FC08131910539
:100EC0003CF4009709F447C1089709F04FC165C089
:100ED0008831910509F466C0809709F047C182C046
:100EE0008034910509F4A4C08134910544F4803321
:100EF000910509F482C0C89709F038C189C08035CE
:100F0000910509F489C08835910509F496C08834A3
:100F1000910509F02BC1AEC08839910509F413C1C0
:100F200089399105ECF48837910509F4ABC089370C
:100F300091054CF48836910509F4A4C080379105D9
:100F400009F014C19FC08838910509F4FCC08039AC
:100F5000910509F49DC08038910509F007C198C03A
:100F6000803B910509F4C6C0813B91054CF4803A61
:100F7000910509F49FC0883A910509F0F7C0BAC0FD
:100F8000803C910509F4E3C0883C910509F4DFC079
:100F9000883B910509F0EAC0C2C08091A501809309
:100FA000BB00CFC09091CC018091CD01981768F41F
:100FB0009091CC01E92FF0E0E455FE4F80818093C1
:100FC000BB009F5F9093CC01BCC08091A601882399
:100FD00009F44BC085ED8093BC008091BC0084FD7A
:100FE000FCCFC2C080E28093110285ED8093BC00EB
:100FF0008091BC0084FDFCCFB7C080E380931102D8
:1010000085ED8093BC008091BC0084FDFCCFACC01A
:1010100088E3809311029BC08091CC019091BB002A
:10102000E82FF0E0E455FE4F90838F5F8093CC0172
:101030009091CC018091CD0182C08091CC019091A2
:10104000BB00E82FF0E0E455FE4F90838F5F809364
:10105000CC018091A601882341F085ED8093BC00EE
:101060008091BC0084FDFCCF7FC081E08093A7010C
:1010700084EA6EC085ED8093BC008091BC0084FD45
:10108000FCCF72C083E08093A4011092100259C07B
:1010900080911002803208F056C080911002909129
:1010A000BB00E82FF0E0E051FE4F90838F5F80930C
:1010B000100247C080911002803230F4E09110029B
:1010C000F0E0E051FE4F108285ED8093BC008091EE
:1010D000BC0084FDFCCF1092A40160911002E0914D
:1010E000AA01F091AB0180EF91E070E009951092B8
:1010F00010022DC084E08093A4011092EE011092A2
:10110000EF01E091A801F091A90109958091EF010B
:10111000882329F481E08093EF011092CE01909111
:10112000EE01E92FF0E0E253FE4F80818093BB0097
:101130009F5F9093EE019091EE018091EF019817DF
:1011400010F485EC01C085E88093BC000FC085ECED
:101150008093BC0009C01092110285ED8093BC0001
:101160008091BC0084FDFCCF1092A401FF91EF910F
:10117000BF91AF919F918F917F916F915F914F91AF
:101180003F912F910F900FBE0F901F9018951092C6
:10119000A40181E08093A6011092A70182E161E0A1
:1011A0000E94240983E161E00E942409E9EBF0E058
:1011B00080818E7F808380818D7F808388E480938F
:1011C000B80085E48093BC000895CF93DF93482F47
:1011D00050E0CA0186569F4FFC0134914A575F4F39
:1011E000FA018491882369F190E0880F991FFC012E
:1011F000E859FF4FA591B491FC01EE58FF4FC591FE
:10120000D491662351F42FB7F8948C91932F909535
:1012100089238C93888189230BC0623061F42FB7B6
:10122000F8948C91932F909589238C938881832BAC
:1012300088832FBF06C09FB7F8948C91832B8C9323
:101240009FBFDF91CF910895482F50E0CA0182558A
:101250009F4FFC012491CA0186569F4FFC01949137
:101260004A575F4FFA013491332309F440C02223D7
:1012700051F1233071F0243028F42130A1F02230D4
:1012800011F514C02630B1F02730C1F02430D9F464
:1012900004C0809180008F7703C0809180008F7D93
:1012A0008093800010C084B58F7702C084B58F7D95
:1012B00084BD09C08091B0008F7703C08091B000D9
:1012C0008F7D8093B000E32FF0E0EE0FFF1FEE580C
:1012D000FF4FA591B4912FB7F894662321F48C9118
:1012E0009095892302C08C91892B8C932FBF0895F0
:1012F000682F70E0CB0182559F4FFC012491CB01F8
:1013000086569F4FFC0144916A577F4FFB01949191
:10131000992319F420E030E03CC0222351F123301E
:1013200071F0243028F42130A1F0223011F514C0DE
:101330002630B1F02730C1F02430D9F404C08091B8
:1013400080008F7703C0809180008F7D8093800024
:1013500010C084B58F7702C084B58F7D84BD09C06D
:101360008091B0008F7703C08091B0008F7D809313
:10137000B000892F90E0880F991F84589F4FFC017F
:10138000A591B4918C9120E030E0842311F021E00C
:1013900030E0C9010895CF92DF92EF92FF920F9350
:1013A0001F93CF93DF937C016B018A01C0E0D0E0F3
:1013B0000FC0D6016D916D01D701ED91FC910190A7
:1013C000F081E02DC7010995C80FD91F01501040C9
:1013D0000115110571F7CE01DF91CF911F910F918A
:1013E000FF90EF90DF90CF900895CF93DF930E940E
:1013F0004A0C0E944A05C9E3DAE00E94790420976A
:10140000E1F30E94390AF9CF08951F920F920FB6A7
:101410000F9211242F933F934F938F939F93EF93AA
:10142000FF934091C60020915202309153022F5FEA
:101430003F4F2F73307080915402909155022817BE
:10144000390759F0E0915202F0915302EE5EFD4FE0
:1014500040833093530220935202FF91EF919F916A
:101460008F914F913F912F910F900FBE0F901F9032
:101470001895E091A602F091A702E05CFF4F8191E0
:10148000919120813181821B930B8F739070892BF6
:1014900011F00E94040A08951F920F920FB60F9246
:1014A00011242F933F938F939F93EF93FF9320915A
:1014B0009602309197028091980290919902281794
:1014C000390731F48091C1008F7D8093C10014C031
:1014D000E0919802F0919902EA5AFD4F20818091A3
:1014E00098029091990201968F739070909399024F
:1014F000809398022093C600FF91EF919F918F9166
:101500003F912F910F900FBE0F901F901895AF92A3
:10151000BF92DF92EF92FF920F931F93CF93DF93CF
:10152000EC017A018B01DD24403081EE580780E028
:10153000680780E0780711F0DD24D39491E0A92EAC
:10154000B12CEC89FD89DD2069F0C5010E8C02C04B
:10155000880F991F0A94E2F7808360E079E08DE3B9
:1015600090E005C0108260E874E88EE190E0A80188
:1015700097010E94850C21503040404050405695C4
:1015800047953795279580E12030380720F0DD20FA
:1015900011F0DD24D6CFE889F9893083EA89FB8907
:1015A0002083EE89FF89408121E030E0C9010A8C67
:1015B00002C0880F991F0A94E2F7482B4083EE89F6
:1015C000FF894081C9010B8C02C0880F991F0A94C2
:1015D000E2F7482B4083EE89FF894081C9010C8CDA
:1015E00002C0880F991F0A94E2F7482B4083EE89C6
:1015F000FF8980810D8C02C0220F331F0A94E2F70D
:10160000209528232083DF91CF911F910F91FF9088
:10161000EF90DF90BF90AF900895DC011C96ED91A4
:10162000FC911D97E05CFF4F219131918081918168
:10163000281B390B2F733070C9010895DC011C96EB
:10164000ED91FC911D97E05CFF4F20813181E054CA
:10165000F040DF01AE5BBF4F8D919C911197281731
:10166000390719F42FEF3FEF07C08D919C91E80FD8
:10167000F91F8081282F30E0C9010895DC011C96F4
:10168000ED91FC911D97E05CFF4F20813181E0548A
:10169000F040DF01AE5BBF4F8D919C9111972817F1
:1016A000390719F42FEF3FEF10C08D919C911197DE
:1016B000E80FF91F20818D919C91119701968F73EE
:1016C000907011969C938E9330E0C9010895FC01AF
:1016D00086859785DC01A05CBF4FFC01EE5BFF4F68
:1016E0002D913C9111978081918128173907C1F77D
:1016F0000895CF93DF93EC01EE85FF85E05CFF4F0B
:1017000020813181E054F0402F5F3F4F2F733070C4
:10171000DF01AE5BBF4F8D919C9111972817390760
:10172000D1F3E05CFF4F80819181E054F040E80FFD
:10173000F91F6083EE85FF85E05CFF4F31832083D6
:10174000EE89FF89208181E090E00D8C02C0880F36
:10175000991F0A94E2F7282B208381E090E0DF9123
:10176000CF91089510929D0210929C0288EE93E012
:10177000A0E0B0E080939E0290939F02A093A0020D
:10178000B093A1028AE291E090939B0280939A0227
:1017900082E192E09093A7028093A60286E592E010
:1017A0009093A9028093A80285EC90E09093AB02FD
:1017B0008093AA0284EC90E09093AD028093AC02F7
:1017C00080EC90E09093AF028093AE0281EC90E0C9
:1017D0009093B1028093B00286EC90E09093B302B4
:1017E0008093B20284E08093B40283E08093B502D8
:1017F00087E08093B60285E08093B70281E0809312
:10180000B80208951F920F920FB60F9211242F93D2
:101810003F938F939F93AF93BF938091BD0290911D
:10182000BE02A091BF02B091C0023091C1020196E8
:10183000A11DB11D232F2D5F2D3720F02D570196AF
:10184000A11DB11D2093C1028093BD029093BE02E1
:10185000A093BF02B093C0028091B9029091BA02E6
:10186000A091BB02B091BC020196A11DB11D809355
:10187000B9029093BA02A093BB02B093BC02BF918D
:10188000AF919F918F913F912F910F900FBE0F902D
:101890001F901895789484B5826084BD84B581606A
:1018A00084BD85B5826085BD85B5816085BDEEE668
:1018B000F0E0808181608083E1E8F0E01082808147
:1018C00082608083808181608083E0E8F0E08081B5
:1018D00081608083E1EBF0E0808184608083E0EBD5
:1018E000F0E0808181608083EAE7F0E080818460BD
:1018F0008083808182608083808181608083808119
:10190000806880831092C1000895A1E21A2EAA1B5C
:10191000BB1BFD010DC0AA1FBB1FEE1FFF1FA2179F
:10192000B307E407F50720F0A21BB30BE40BF50B9C
:10193000661F771F881F991F1A9469F76095709525
:10194000809590959B01AC01BD01CF010895EE0FEC
:0E195000FF1F0590F491E02D0994F894FFCF4D
:10195E002000C60200000D000C000B000A0009005A
:10196E00080007000600000000001A06E905A2059F
:10197E00AB05C005D10500000000790BCB090D0B9E
:06198E003E0B1E0B670B6F
:00000001FF
