:100000000C9462000C948A000C948A000C948A0070
:100010000C948A000C948A000C948A000C948A0038
:100020000C948A000C948A000C948A000C948A0028
:100030000C948A000C948A000C948A000C948A0018
:100040000C94DB050C948A000C945A070C94A107BD
:100050000C948A000C948A000C948A000C948A00F8
:100060000C948A000C948A000000000024002700F1
:100070002A0000000000250028002B0000000000DE
:1000800023002600290004040404040404040202DA
:100090000202020203030303030301020408102007
:1000A0004080010204081020010204081020000012
:1000B0000007000201000003040600000000000029
:1000C0000000070911241FBECFEFD8E0DEBFCDBF6F
:1000D00011E0A0E0B1E0E6E5F3E102C005900D9289
:1000E000AC33B107D9F712E0ACE3B1E001C01D9227
:1000F000A330B107E1F710E0C4ECD0E004C02297D0
:10010000FE010E94A509C23CD107C9F70E944A0717
:100110000C94A9090C940000CF93DF93BC018230AA
:10012000910510F462E070E0A0910102B09102022A
:10013000ED0140E050E0E0E0F0E021C088819981ED
:100140008617970769F48A819B81309719F093830A
:10015000828304C09093020280930102FE0134C0A6
:100160006817790738F44115510519F08417950778
:1001700008F4AC01FE018A819B819C01E901209772
:10018000E9F641155105A9F1CA01861B970B0497A1
:1001900008F4BA01E0E0F0E02AC08D919C9111973B
:1001A00084179507F9F46417750781F412968D91F9
:1001B0009C911397309719F09383828304C0909396
:1001C000020280930102FD0132964CC0CA01861BD7
:1001D000970BFD01E80FF91F6193719302978D93BF
:1001E0009C9340C0FD01828193819C01D9011097AD
:1001F000A1F68091FF0190910002892B41F480913A
:10020000020190910301909300028093FF014091BD
:100210000401509105014115510541F44DB75EB7F8
:100220008091000190910101481B590B2091FF0121
:1002300030910002CA01821B930B8617970780F04A
:10024000AB014E5F5F4F8417950750F0420F531F6D
:10025000509300024093FF01F9016193719302C032
:10026000E0E0F0E0CF01DF91CF910895CF93DF93ED
:10027000009709F450C0EC0122971B821A82A091CA
:100280000102B0910202109709F140E050E0AC1772
:10029000BD0708F1BB83AA83FE0121913191E20FD2
:1002A000F31FAE17BF0779F48D919C911197280F1A
:1002B000391F2E5F3F4F3983288312968D919C9171
:1002C00013979B838A834115510571F4D0930202E1
:1002D000C093010220C012968D919C911397AD019D
:1002E000009711F0DC01D3CFFA01D383C2832191AF
:1002F0003191E20FF31FCE17DF0769F488819981EE
:10030000280F391F2E5F3F4FFA01318320838A81E6
:100310009B8193838283DF91CF9108951F93182F40
:10032000885C833028F480EE91E06AEC0E94CE086D
:1003300080EE91E0612F0E94CE081F910895CF9327
:10034000DF93EC0180EE91E00E946208892B11F4AA
:1003500080E006C080EE91E00E949308888381E0EF
:10036000DF91CF910895EF92FF921F93CF93DF9388
:10037000EC017B0110E080EE91E00E94620888238E
:1003800051F4153169F01F5F61E070E080E090E0AA
:100390000E942306F0CFCE01B7010E949F0181E0A9
:1003A000DF91CF911F91FF90EF9008950F931F93CE
:1003B000CF93DF938C01EB01CB01B8010E94B30115
:1003C0008823A1F08881893C29F08A3C49F0883C47
:1003D00081F403C022E030E00EC020E030E00BC02A
:1003E000CE01B8010E94B301882319F421E030E066
:1003F00002C023E030E0C901DF91CF911F910F913E
:100400000895AF92BF92CF92DF92EF92FF920F9337
:100410001F93CF93DF936C01F62EE42E5901E80170
:1004200080EE91E068EC0E94CE088D2DBE010E9406
:100430008E010C2D8C2DBE010E948E018F2DBE01D0
:100440000E948E010F250D250E258E2DBE010E94C6
:100450008E0110E008C0EA0DFB1D808108271F5F98
:10046000BE010E948E01E12FF0E0EC15FD0598F32E
:10047000802FBE010E948E0180EE91E069EC0E9407
:10048000CE0880EE91E00E94BC08DF91CF911F91D1
:100490000F91FF90EF90DF90CF90BF90AF900895B5
:1004A0002F923F924F925F926F927F928F929F9284
:1004B000AF92BF92CF92DF92EF92FF920F931F9372
:1004C000DF93CF93CDB7DEB728970FB6F894DEBF92
:1004D0000FBECDBF4C018B017A0159012DB73EB73C
:1004E0003E832D833DB73F838EB7888780EE91E0B2
:1004F0000E946208882309F4A9C061E070E080E0EE
:1005000090E00E942306012B49F4CE010196B70129
:100510000E949F01882309F499C002C088EC898356
:100520008981883C09F092C084E0682E712C6C0EA1
:100530007D1EC701B3010E94D601B401A701950138
:100540000E944E03882309F481C0DC80C701B301F7
:100550000E94D601B401A70195010E944E03882391
:1005600009F474C00C819D2D80E02C01400E511CBB
:10057000C2010196EDB7FEB7E81BF90B0FB6F89470
:10058000FEBF0FBEEDBF2DB63EB60894211C311C38
:10059000C701BE016E5F7F4F0E94D601B401A70163
:1005A00095010E944E03882309F450C01A81C701A7
:1005B000BE016D5F7F4F0E94D601B401A701950176
:1005C0000E944E03882309F441C0D026D1268B8196
:1005D000D826CC24C301762C692E13C0C701672D01
:1005E000762D0E94D601B401A70195010E944E0309
:1005F000882361F18C81020D131DF8018083C3945F
:10060000D8260C2D10E00415150540F3C701672D01
:10061000762D0E94D601B401A70195010E944E03D8
:100620008823A1F08C81D81689F4872D962DB701E7
:100630000E94B301882351F08C81893C39F4C201B6
:100640006A814B8191018501F40109958F8198851B
:100650009C010FB6F8943EBF0FBE2DBF2D813E8189
:100660000FB6F8943EBF0FBE2DBF28960FB6F89474
:10067000DEBF0FBECDBFCF91DF911F910F91FF90D5
:10068000EF90DF90CF90BF90AF909F908F907F9032
:100690006F905F904F903F902F9008958330910519
:1006A00034F4813091057CF4892B29F00BC0039739
:1006B00049F481E00895CB0161E070E00E945002AE
:1006C00080E00895089580E008950F931F93CF93DD
:1006D000DF93E82FF0E0E55FFE4F8081082F10E008
:1006E000C0E0D0E0FE01E95FFE4FB8010C2E02C071
:1006F000759567950A94E2F7617080810E94F6060D
:100700002196C430D10571F783E10E94B905DF91CC
:10071000CF911F910F9108954F925F926F927F92A8
:100720008F929F92AF92BF92CF92DF92EF92FF9201
:100730000F931F93CF93DF932C013B014A01DA0102
:1007400012962D913C91139780E090E0F901E80F0B
:10075000F91F108211821282138204968033910550
:10076000A9F7AA2429C0F401C280D380CC0EDD1ED3
:10077000D601ED90FD900D911C918B2D0E9465038B
:10078000AA2797FDA095BA2FE80EF91E0A1F1B1F76
:10079000F601E082F18202831383B3942496FCE095
:1007A000BF1609F761E070E080E090E00E94230648
:1007B000A39485E0A81621F0BB24C0E0D0E0D3CFFD
:1007C00000E010E0EE24FF24CC24C394502FD40189
:1007D000CD91DC911197C00FD11F488120E030E00E
:1007E0001296ED91FC911397EE0DFF1D8081918182
:1007F000A281B3810697A105B10514F021E030E094
:10080000842F90E02817390759F0442329F01882E3
:10081000852FF301099504C0C882852FF20109953F
:100820000F5F1F4FE4E0F0E0EE0EFF1E0C301105ED
:1008300069F6DF91CF911F910F91FF90EF90DF90BC
:10084000CF90BF90AF909F908F907F906F905F9070
:100850004F900895CF93DF9384E090E00E948C0046
:10086000EC018CE090E00E948C008883998380E307
:1008700090E00E948C008A839B8380E090E0E88176
:10088000F981E80FF91F108201968C309105B9F7B4
:1008900084E061E00E94B70688E061E00E94B7064C
:1008A00083E061E00E94B70682E061E00E94B70643
:1008B000CE01DF91CF910895CF92DF92EF92FF9218
:1008C0000F931F93CF93DF937C010BE111E0C0E006
:1008D000D0E081E0C82ED12CC6010C2E02C0880FBA
:1008E000991F0A94E2F78E219F21892B21F0F801AC
:1008F000808161E003C0F801808160E00E94F6061B
:1009000021960E5F1F4FC830D10531F7DF91CF918F
:100910001F910F91FF90EF90DF90CF900895FB0112
:100920008081882339F42181928180E0820F911D9A
:100930000E945C040895CF93DF93CBE1D1E08881DE
:1009400061E00E94B706229681E0CB32D807B9F762
:10095000DF91CF9108950F931F9340914C015091D7
:100960004D018CEF94E068ED74E00E948C0389E9FE
:1009700095E060E070E040E050E020E030E00E9470
:10098000500280914E018F5F80934E0181508431DF
:1009900064F010924E0180E090E063E040E020E0DF
:1009A00030E000E010E00E9401021F910F910895D5
:1009B0000F931F93DF93CF9300D000D00F92CDB74A
:1009C000DEB7FE01319695E0DF011D929A95E9F7B9
:1009D0008D8385E090E062E044E09F0100E010E05C
:1009E0000E9401020F900F900F900F900F90CF91E7
:1009F000DF911F910F9108950F931F93DF93CF9372
:100A000000D000D00F92CDB7DEB7FE01319695E051
:100A1000DF011D929A95E9F78D8385E090E062E011
:100A200043E09F0100E010E00E9401020F900F9050
:100A30000F900F900F90CF91DF911F910F9108951C
:100A40000F931F93DF93CF93CDB7DEB7CA54D04037
:100A50000FB6F894DEBF0FBECDBF80EE91E040E848
:100A600055E260E070E00E94DC07DE0111968AE446
:100A7000FD0111928A95E9F782E08A8B33E03C8B85
:100A800091E09E8B9F8B24E0298F8DE08C8F88E0F6
:100A900089A72BA79DA79EA738AB80E18BABFE0152
:100AA000EF5BFF4F90838CE0FE01ED5BFF4F808397
:100AB0008AE490E060E041E09D0100E010E00E94E7
:100AC0000102C65BDF4F0FB6F894DEBF0FBECDBF8D
:100AD000CF91DF911F910F91089580EE91E040E852
:100AE00055E260E070E00E94DC070E949B040E94D7
:100AF0002A0490934D0180934C01ECE3F1E01182C4
:100B000010821382128215821482178216823896FE
:100B100081E0EC34F80799F780E295E090933D018D
:100B200080933C018FE894E09093470180934601C5
:100B30000895CF93DF93E9016230A8F4443098F42C
:100B4000E62FF0E0EE0FFF1FEE0FFF1FE40FF11D89
:100B5000EE0FFF1FE45CFE4F0190F081E02D309717
:100B600011F0BE010995CE010E943601DF91CF91AF
:100B70000895982F8E3008F09E509770809106014E
:100B80008295880F880F807C892B80937C008091D0
:100B90007A00806480937A0080917A0086FDFCCF91
:100BA0002091780040917900942F80E030E0282B4C
:100BB000392BC90108951F920F920FB60F9211247D
:100BC0002F933F938F939F93AF93BF938091530144
:100BD00090915401A0915501B09156013091570167
:100BE0000196A11DB11D232F2D5F2D3720F02D570C
:100BF0000196A11DB11D209357018093530190933D
:100C00005401A0935501B093560180914F019091EA
:100C10005001A0915101B09152010196A11DB11D49
:100C200080934F0190935001A0935101B0935201D2
:100C3000BF91AF919F918F913F912F910F900FBED8
:100C40000F901F9018959B01AC017FB7F89480918D
:100C50004F0190915001A0915101B091520166B5A0
:100C6000A89B05C06F3F19F00196A11DB11D7FBF64
:100C7000BA2FA92F982F8827860F911DA11DB11D6E
:100C800062E0880F991FAA1FBB1F6A95D1F7BC01AC
:100C90002DC0FFB7F89480914F0190915001A09121
:100CA0005101B0915201E6B5A89B05C0EF3F19F084
:100CB0000196A11DB11DFFBFBA2FA92F982F88271C
:100CC0008E0F911DA11DB11DE2E0880F991FAA1F73
:100CD000BB1FEA95D1F7861B970B885E9340C8F23D
:100CE000215030404040504068517C4F2115310523
:100CF0004105510571F60895789484B5826084BDEC
:100D000084B5816084BD85B5826085BD85B581600F
:100D100085BDEEE6F0E0808181608083E1E8F0E06F
:100D20001082808182608083808181608083E0E89E
:100D3000F0E0808181608083E1EBF0E0808184607D
:100D40008083E0EBF0E0808181608083EAE7F0E07F
:100D500080818460808380818260808380818160E3
:100D600080838081806880831092C1000895CF9332
:100D7000DF93482F50E0CA0186569F4FFC01349103
:100D80004A575F4FFA018491882369F190E0880FF8
:100D9000991FFC01E859FF4FA591B491FC01EE5851
:100DA000FF4FC591D491662351F42FB7F8948C91DD
:100DB000932F909589238C93888189230BC062306F
:100DC00061F42FB7F8948C91932F909589238C938D
:100DD0008881832B88832FBF06C09FB7F8948C919E
:100DE000832B8C939FBFDF91CF910895482F50E0C4
:100DF000CA0182559F4FFC012491CA0186569F4F1C
:100E0000FC0194914A575F4FFA013491332309F45E
:100E100040C0222351F1233071F0243028F42130D6
:100E2000A1F0223011F514C02630B1F02730C1F006
:100E30002430D9F404C0809180008F7703C0809162
:100E400080008F7D8093800010C084B58F7702C0B2
:100E500084B58F7D84BD09C08091B0008F7703C0B9
:100E60008091B0008F7D8093B000E32FF0E0EE0F13
:100E7000FF1FEE58FF4FA591B4912FB7F89466234A
:100E800021F48C919095892302C08C91892B8C93AD
:100E90002FBF0895CF93DF930E947C060E946D05BB
:100EA000CEE8D7E00E94AB042097E1F30E948E07C2
:100EB000F9CF08951F920F920FB60F9211242F931E
:100EC0003F934F938F939F93EF93FF934091C6006F
:100ED00020919801309199012F5F3F4F2F7330700F
:100EE00080919A0190919B012817390759F0E09160
:100EF0009801F0919901E85AFE4F4083309399018F
:100F000020939801FF91EF919F918F914F913F9185
:100F10002F910F900FBE0F901F901895E091EC014C
:100F2000F091ED01E05CFF4F819191912081318141
:100F3000821B930B8F739070892B11F00E945907BD
:100F400008951F920F920FB60F9211242F933F9383
:100F50008F939F93EF93FF932091DC013091DD01FC
:100F60008091DE019091DF012817390731F48091DB
:100F7000C1008F7D8093C10014C0E091DE01F0912B
:100F8000DF01E456FE4F20818091DE019091DF0168
:100F900001968F7390709093DF018093DE01209310
:100FA000C600FF91EF919F918F913F912F910F90EC
:100FB0000FBE0F901F901895AF92BF92DF92EF92E5
:100FC000FF920F931F93CF93DF93EC017A018B0174
:100FD000DD24403081EE580780E0680780E0780724
:100FE00011F0DD24D39491E0A92EB12CEC89FD8978
:100FF000DD2069F0C5010E8C02C0880F991F0A948C
:10100000E2F7808360E079E08DE390E005C0108234
:1010100060E874E88EE190E0A80197010E948109E0
:101020002150304040405040569547953795279580
:1010300080E12030380720F0DD2011F0DD24D6CF0C
:10104000E889F9893083EA89FB892083EE89FF8961
:10105000408121E030E0C9010A8C02C0880F991F4D
:101060000A94E2F7482B4083EE89FF894081C90149
:101070000B8C02C0880F991F0A94E2F7482B40831B
:10108000EE89FF894081C9010C8C02C0880F991F2D
:101090000A94E2F7482B4083EE89FF8980810D8C0A
:1010A00002C0220F331F0A94E2F7209528232083E1
:1010B000DF91CF911F910F91FF90EF90DF90BF9044
:1010C000AF900895DC011C96ED91FC911D97E05CBA
:1010D000FF4F2191319180819181281B390B2F7312
:1010E0003070C9010895DC011C96ED91FC911D97AB
:1010F000E05CFF4F20813181E054F040DF01AE5BC6
:10110000BF4F8D919C9111972817390719F42FEF34
:101110003FEF07C08D919C91E80FF91F8081282F28
:1011200030E0C9010895DC011C96ED91FC911D97FA
:10113000E05CFF4F20813181E054F040DF01AE5B85
:10114000BF4F8D919C9111972817390719F42FEFF4
:101150003FEF10C08D919C911197E80FF91F2081EE
:101160008D919C91119701968F73907011969C931D
:101170008E9330E0C9010895FC0186859785DC01D6
:10118000A05CBF4FFC01EE5BFF4F2D913C9111978E
:101190008081918128173907C1F70895CF93DF9394
:1011A000EC01EE85FF85E05CFF4F20813181E0544A
:1011B000F0402F5F3F4F2F733070DF01AE5BBF4FAA
:1011C0008D919C91119728173907D1F3E05CFF4F5F
:1011D00080819181E054F040E80FF91F6083EE8533
:1011E000FF85E05CFF4F31832083EE89FF892081FA
:1011F00081E090E00D8C02C0880F991F0A94E2F7FD
:10120000282B208381E090E0DF91CF910895109208
:10121000E3011092E20188EE93E0A0E0B0E0809359
:10122000E4019093E501A093E601B093E7018FE21A
:1012300091E09093E1018093E00188E591E0909343
:10124000ED018093EC018CE991E09093EF018093A4
:10125000EE0185EC90E09093F1018093F00184EC35
:1012600090E09093F3018093F20180EC90E09093F2
:10127000F5018093F40181EC90E09093F701809365
:10128000F60186EC90E09093F9018093F80184E0F8
:101290008093FA0183E08093FB0187E08093FC0157
:1012A00085E08093FD0181E08093FE010895CF9257
:1012B000DF92EF92FF920F931F93CF93DF937C0106
:1012C0006B018A01C0E0D0E00FC0D6016D916D01C5
:1012D000D701ED91FC910190F081E02DC7010995B6
:1012E000C80FD91F015010400115110571F7CE012B
:1012F000DF91CF911F910F91FF90EF90DF90CF90F2
:101300000895A1E21A2EAA1BBB1BFD010DC0AA1F46
:10131000BB1FEE1FFF1FA217B307E407F50720F05E
:10132000A21BB30BE40BF50B661F771F881F991FD9
:101330001A9469F760957095809590959B01AC0122
:10134000BD01CF010895EE0FFF1F0590F491E02D30
:061350000994F894FFCFA0
:1013560020000302000001040803020F0D0E0C0B0F
:10136600090A0800020103040605070C000A000723
:10137600000D000B0009000500060000000000CE6D
:0C138600085709620893087308BC0800AF
:00000001FF
