:100000000C9462000C948A000C948A000C948A0070
:100010000C948A000C948A000C948A000C948A0038
:100020000C948A000C948A000C948A000C948A0028
:100030000C948A000C948A000C948A000C948A0018
:100040000C94A4050C948A000C9423070C946A0762
:100050000C948A000C948A000C948A000C948A00F8
:100060000C948A000C948A000000000024002700F1
:100070002A0000000000250028002B0000000000DE
:1000800023002600290004040404040404040202DA
:100090000202020203030303030301020408102007
:1000A0004080010204081020010204081020000012
:1000B0000007000201000003040600000000000029
:1000C0000000D00811241FBECFEFD8E0DEBFCDBFA7
:1000D00011E0A0E0B1E0E8EEF2E102C005900D927F
:1000E000AC33B107D9F712E0ACE3B1E001C01D9227
:1000F000A230B107E1F710E0C4ECD0E004C02297D1
:10010000FE010E946E09C23CD107C9F70E94130785
:100110000C9472090C940000CF93DF93BC018230E1
:10012000910510F462E070E0A0910002B09101022C
:10013000ED0140E050E0E0E0F0E021C088819981ED
:100140008617970769F48A819B81309719F093830A
:10015000828304C09093010280930002FE0134C0A8
:100160006817790738F44115510519F08417950778
:1001700008F4AC01FE018A819B819C01E901209772
:10018000E9F641155105A9F1CA01861B970B0497A1
:1001900008F4BA01E0E0F0E02AC08D919C9111973B
:1001A00084179507F9F46417750781F412968D91F9
:1001B0009C911397309719F09383828304C0909396
:1001C000010280930002FD0132964CC0CA01861BD9
:1001D000970BFD01E80FF91F6193719302978D93BF
:1001E0009C9340C0FD01828193819C01D9011097AD
:1001F000A1F68091FE019091FF01892B41F480913D
:100200000201909103019093FF018093FE014091C0
:100210000401509105014115510541F44DB75EB7F8
:100220008091000190910101481B590B2091FE0122
:100230003091FF01CA01821B930B8617970780F04C
:10024000AB014E5F5F4F8417950750F0420F531F6D
:100250005093FF014093FE01F9016193719302C035
:10026000E0E0F0E0CF01DF91CF910895CF93DF93ED
:10027000009709F450C0EC0122971B821A82A091CA
:100280000002B0910102109709F140E050E0AC1774
:10029000BD0708F1BB83AA83FE0121913191E20FD2
:1002A000F31FAE17BF0779F48D919C911197280F1A
:1002B000391F2E5F3F4F3983288312968D919C9171
:1002C00013979B838A834115510571F4D0930102E2
:1002D000C093000220C012968D919C911397AD019E
:1002E000009711F0DC01D3CFFA01D383C2832191AF
:1002F0003191E20FF31FCE17DF0769F488819981EE
:10030000280F391F2E5F3F4FFA01318320838A81E6
:100310009B8193838283DF91CF9108951F93182F40
:10032000885C833028F48FED91E06AEC0E94970896
:100330008FED91E0612F0E9497081F910895AF9271
:10034000BF92CF92DF92EF92FF920F931F93CF93C2
:10035000DF936C01F62EE42E5901E8018FED91E058
:1003600068EC0E9497088D2DBE010E948E010C2D15
:100370008C2DBE010E948E018F2DBE010E948E0128
:100380000F250D250E258E2DBE010E948E0110E039
:1003900008C0EA0DFB1D808108271F5FBE010E9477
:1003A0008E01E12FF0E0EC15FD0598F3802FBE01E2
:1003B0000E948E018FED91E069EC0E949708DF9119
:1003C000CF911F910F91FF90EF90DF90CF90BF9052
:1003D000AF9008951F93CF93DF93EC0110E08FED62
:1003E00091E00E942B08882351F4153171F01F5FB2
:1003F00061E070E080E090E00E94EC05F0CF8FEDCE
:1004000091E00E945C08888381E0DF91CF911F9189
:1004100008950F931F93CF93DF938C01EB01CB01D2
:10042000B8010E94EA018823A1F08881893C29F063
:100430008A3C49F0883C81F403C022E030E00EC0E1
:1004400020E030E00BC0CE01B8010E94EA01882311
:1004500019F421E030E002C023E030E0C901DF916F
:10046000CF911F910F9108952F923F924F925F92DB
:100470006F927F928F929F92AF92BF92CF92DF92B4
:10048000EF92FF920F931F93DF93CF93CDB7DEB719
:1004900027970FB6F894DEBF0FBECDBF4C018B017E
:1004A0007A0159012DB73EB73D832C833DB73E837A
:1004B0008EB78F838DE061E00E94BF068FED91E0E3
:1004C0000E942B08882309F4A2C0012B11F018EC1C
:1004D00005C08FED91E00E945C08182F8DE060E070
:1004E0000E94BF06183C09F092C083E0682E712C70
:1004F0006C0E7D1EC701B3010E940902B401A70161
:1005000095010E942F03882309F481C0DB80C70175
:10051000B3010E940902B401A70195010E942F03B3
:10052000882309F474C00B819D2D80E02C01400EBE
:10053000511CC2010196EDB7FEB7E81BF90B0FB6CF
:10054000F894FEBF0FBEEDBF2DB63EB60894211C39
:10055000311CC701BE016F5F7F4F0E940902B401C9
:10056000A70195010E942F03882309F450C0198127
:10057000C701BE016E5F7F4F0E940902B401A7014F
:1005800095010E942F03882309F441C0D026D1266B
:100590008A81D826CC24C301762C692E13C0C701CA
:1005A000672D762D0E940902B401A70195010E94D2
:1005B0002F03882361F18B81020D131DF8018083C5
:1005C000C394D8260C2D10E00415150540F3C7017F
:1005D000672D762D0E940902B401A70195010E94A2
:1005E0002F038823A1F08B81D81689F4872D962DAF
:1005F000B7010E94EA01882351F08B81893C39F4CC
:10060000C20169814A8191018501F40109958E81B8
:100610009F819C010FB6F8943EBF0FBE2DBF2C8169
:100620003D810FB6F8943EBF0FBE2DBF27960FB683
:10063000F894DEBF0FBECDBFCF91DF911F910F9118
:10064000FF90EF90DF90CF90BF90AF909F908F90F2
:100650007F906F905F904F903F902F9008958330E0
:10066000910534F4813091057CF4892B29F00BC07D
:10067000039749F481E00895CB0161E070E00E94A6
:10068000340280E00895089580E008950F931F9349
:10069000CF93DF93E82FF0E0E55FFE4F8081082FD6
:1006A00010E0C0E0D0E0FE01E95FFE4FB8010C2E83
:1006B00002C0759567950A94E2F7617080810E9487
:1006C000BF062196C430D10571F783E10E948205EF
:1006D000DF91CF911F910F9108954F925F926F928A
:1006E0007F928F929F92AF92BF92CF92DF92EF92C2
:1006F000FF920F931F93CF93DF932C013B014A018D
:10070000DA0112962D913C91139780E090E0F90167
:10071000E80FF91F1082118212821382049680332F
:100720009105A9F7AA2429C0F401C280D380CC0E78
:10073000DD1ED601ED90FD900D911C918B2D0E9438
:100740004603AA2797FDA095BA2FE80EF91E0A1FA7
:100750001B1FF601E082F18202831383B394249677
:10076000FCE0BF1609F761E070E080E090E00E94D5
:10077000EC05A39485E2A81621F0BB24C0E0D0E0EC
:10078000D3CF00E010E0EE24FF24CC24C394502FFC
:10079000D401CD91DC911197C00FD11F488120E089
:1007A00030E01296ED91FC911397EE0DFF1D8081C4
:1007B0009181A281B3818697A105B10514F021E052
:1007C00030E0842F90E02817390759F0442329F0AE
:1007D0001882852FF301099504C0C882852FF20184
:1007E00009950F5F1F4FE4E0F0E0EE0EFF1E0C30A6
:1007F000110569F6DF91CF911F910F91FF90EF9056
:10080000DF90CF90BF90AF909F908F907F906F9030
:100810005F904F900895CF93DF9384E090E00E9423
:100820008C00EC018CE090E00E948C00888399831E
:1008300080E390E00E948C008A839B8380E090E0BC
:10084000E881F981E80FF91F108201968C3091053B
:10085000B9F784E061E00E94800688E061E00E94D0
:10086000800683E061E00E94800682E061E00E94F1
:100870008006CE01DF91CF91089540914C015091B7
:100880004D0186E794E062E574E00E946D0382E624
:1008900095E060E070E040E050E020E030E00E9451
:1008A000340208950F931F93DF93CF9300D000D0AD
:1008B0000F92CDB7DEB7FE01319695E0DF011D92B4
:1008C0009A95E9F78D8385E090E062E044E09F012E
:1008D00000E010E00E949F010F900F900F900F908A
:1008E0000F90CF91DF911F910F9108950F931F9358
:1008F000DF93CF9300D000D00F92CDB7DEB7FE01CB
:10090000319695E0DF011D929A95E9F78D8385E098
:1009100090E062E043E09F0100E010E00E949F0150
:100920000F900F900F900F900F90CF91DF911F912C
:100930000F9108950F931F93DF93CF93CDB7DEB739
:10094000CA54D0400FB6F894DEBF0FBECDBF8FEDB6
:1009500091E040E855E260E070E00E94A507DE010A
:1009600011968AE4FD0111928A95E9F782E08A8B5B
:1009700033E03C8B91E09E8B9F8B24E0298F8DE0B0
:100980008C8F88E089A72BA79DA79EA738AB80E115
:100990008BABFE01EF5BFF4F90838CE0FE01ED5BC4
:1009A000FF4F80838AE490E060E041E09D0100E039
:1009B00010E00E949F01C65BDF4F0FB6F894DEBFC8
:1009C0000FBECDBFCF91DF911F910F910895CF92B0
:1009D000DF92EF92FF920F931F93CF93DF937C01EF
:1009E0000BE111E0C0E0D0E021E0C22ED12CC60125
:1009F0000C2E02C0880F991F0A94E2F78E219F21C6
:100A0000892B21F0F801808161E003C0F801808129
:100A100060E00E94BF0621960E5F1F4FC830D105CF
:100A200031F7DF91CF911F910F91FF90EF90DF9001
:100A3000CF900895FB018081882339F42181928130
:100A400080E0820F911D0E94E7040895CF93DF9309
:100A5000CBE1D1E0888161E00E948006229681E0AE
:100A6000CB32D807B9F7DF91CF9108958FED91E0A0
:100A700040E855E260E070E00E94A5070E9426056C
:100A80000E940B0490934D0180934C01ECE3F1E044
:100A900011821082138212821582148217821682AA
:100AA000389681E0EC34F80799F78AE994E090935E
:100AB0003D0180933C018AE195E09093470180934A
:100AC00046010895CF93DF93E9016230A8F44430E2
:100AD00098F4E62FF0E0EE0FFF1FEE0FFF1FE40F7C
:100AE000F11DEE0FFF1FE45CFE4F0190F081E02D41
:100AF000309711F0B9010995CE010E943601DF91BE
:100B0000CF910895982F8E3008F09E509770809165
:100B100006018295880F880F807C892B80937C004A
:100B200080917A00806480937A0080917A0086FDBB
:100B3000FCCF2091780040917900942F80E030E044
:100B4000282B392BC90108951F920F920FB60F92CF
:100B500011242F933F938F939F93AF93BF938091D3
:100B6000520190915301A0915401B09155013091DF
:100B700056010196A11DB11D232F2D5F2D3720F0A9
:100B80002D570196A11DB11D20935601809352014E
:100B900090935301A0935401B093550180914E015D
:100BA00090914F01A0915001B09151010196A11D6A
:100BB000B11D80934E0190934F01A0935001B093CB
:100BC0005101BF91AF919F918F913F912F910F90C4
:100BD0000FBE0F901F9018959B01AC017FB7F89442
:100BE00080914E0190914F01A0915001B09151011F
:100BF00066B5A89B05C06F3F19F00196A11DB11DF8
:100C00007FBFBA2FA92F982F8827860F911DA11D6E
:100C1000B11D62E0880F991FAA1FBB1F6A95D1F70B
:100C2000BC012DC0FFB7F89480914E0190914F0107
:100C3000A0915001B0915101E6B5A89B05C0EF3FCE
:100C400019F00196A11DB11DFFBFBA2FA92F982F32
:100C500088278E0F911DA11DB11DE2E0880F991FFD
:100C6000AA1FBB1FEA95D1F7861B970B885E93409E
:100C7000C8F2215030404040504068517C4F21150F
:100C800031054105510571F60895789484B5826067
:100C900084BD84B5816084BD85B5826085BD85B520
:100CA000816085BDEEE6F0E0808181608083E1E8CF
:100CB000F0E0108280818260808380818160808307
:100CC000E0E8F0E0808181608083E1EBF0E080810A
:100CD00084608083E0EBF0E0808181608083EAE7DC
:100CE000F0E0808184608083808182608083808165
:100CF000816080838081806880831092C100089524
:100D0000CF93DF93482F50E0CA0186569F4FFC01D6
:100D100034914A575F4FFA018491882369F190E03A
:100D2000880F991FFC01E859FF4FA591B491FC0170
:100D3000EE58FF4FC591D491662351F42FB7F89424
:100D40008C91932F909589238C93888189230BC054
:100D5000623061F42FB7F8948C91932F909589238A
:100D60008C938881832B88832FBF06C09FB7F8940C
:100D70008C91832B8C939FBFDF91CF910895482F47
:100D800050E0CA0182559F4FFC012491CA0186564A
:100D90009F4FFC0194914A575F4FFA0134913323DE
:100DA00009F440C0222351F1233071F0243028F49B
:100DB0002130A1F0223011F514C02630B1F02730D7
:100DC000C1F02430D9F404C0809180008F7703C033
:100DD000809180008F7D8093800010C084B58F77D4
:100DE00002C084B58F7D84BD09C08091B0008F772B
:100DF00003C08091B0008F7D8093B000E32FF0E0BE
:100E0000EE0FFF1FEE58FF4FA591B4912FB7F89446
:100E1000662321F48C919095892302C08C91892BB3
:100E20008C932FBF0895CF93DF930E9445060E94B5
:100E30003605C7E5D7E00E943D042097E1F30E9404
:100E40005707F9CF08951F920F920FB60F921124F2
:100E50002F933F934F938F939F93EF93FF934091E3
:100E6000C60020919701309198012F5F3F4F2F735B
:100E700030708091990190919A012817390759F0A3
:100E8000E0919701F0919801E95AFE4F4083309329
:100E9000980120939701FF91EF919F918F914F912E
:100EA0003F912F910F900FBE0F901F901895E091DA
:100EB000EB01F091EC01E05CFF4F81919191208179
:100EC0003181821B930B8F739070892B11F00E94DC
:100ED000220708951F920F920FB60F9211242F939D
:100EE0003F938F939F93EF93FF932091DB0130917A
:100EF000DC018091DD019091DE012817390731F482
:100F00008091C1008F7D8093C10014C0E091DD010C
:100F1000F091DE01E556FE4F20818091DD01909138
:100F2000DE0101968F7390709093DE018093DD0156
:100F30002093C600FF91EF919F918F913F912F9148
:100F40000F900FBE0F901F901895AF92BF92DF9237
:100F5000EF92FF920F931F93CF93DF93EC017A01EF
:100F60008B01DD24403081EE580780E0680780E087
:100F7000780711F0DD24D39491E0A92EB12CEC89EF
:100F8000FD89DD2069F0C5010E8C02C0880F991F14
:100F90000A94E2F7808360E079E08DE390E005C099
:100FA000108260E874E88EE190E0A80197010E9449
:100FB0004A0921503040404050405695479537955A
:100FC000279580E12030380720F0DD2011F0DD2466
:100FD000D6CFE889F9893083EA89FB892083EE89B5
:100FE000FF89408121E030E0C9010A8C02C0880FEE
:100FF000991F0A94E2F7482B4083EE89FF894081CC
:10100000C9010B8C02C0880F991F0A94E2F7482B84
:101010004083EE89FF894081C9010C8C02C0880F92
:10102000991F0A94E2F7482B4083EE89FF8980815B
:101030000D8C02C0220F331F0A94E2F7209528235B
:101040002083DF91CF911F910F91FF90EF90DF9060
:10105000BF90AF900895DC011C96ED91FC911D9717
:10106000E05CFF4F2191319180819181281B390BE8
:101070002F733070C9010895DC011C96ED91FC912D
:101080001D97E05CFF4F20813181E054F040DF018B
:10109000AE5BBF4F8D919C9111972817390719F4BA
:1010A0002FEF3FEF07C08D919C91E80FF91F8081D2
:1010B000282F30E0C9010895DC011C96ED91FC91C8
:1010C0001D97E05CFF4F20813181E054F040DF014B
:1010D000AE5BBF4F8D919C9111972817390719F47A
:1010E0002FEF3FEF10C08D919C911197E80FF91FE2
:1010F00020818D919C91119701968F73907011961C
:101100009C938E9330E0C9010895FC0186859785F4
:10111000DC01A05CBF4FFC01EE5BFF4F2D913C91C9
:1011200011978081918128173907C1F70895CF93CE
:10113000DF93EC01EE85FF85E05CFF4F208131817C
:10114000E054F0402F5F3F4F2F733070DF01AE5BF4
:10115000BF4F8D919C91119728173907D1F3E05C0F
:10116000FF4F80819181E054F040E80FF91F6083C8
:10117000EE85FF85E05CFF4F31832083EE89FF8998
:10118000208181E090E00D8C02C0880F991F0A94A5
:10119000E2F7282B208381E090E0DF91CF91089542
:1011A0001092E2011092E10188EE93E0A0E0B0E03D
:1011B0008093E3019093E401A093E501B093E601ED
:1011C0008FE291E09093E0018093DF0187E591E069
:1011D0009093EC018093EB018BE991E09093EE0109
:1011E0008093ED0185EC90E09093F0018093EF0106
:1011F00084EC90E09093F2018093F10180EC90E018
:101200009093F4018093F30181EC90E09093F601C8
:101210008093F50186EC90E09093F8018093F701BC
:1012200084E08093F90183E08093FA0187E0809362
:10123000FB0185E08093FC0181E08093FD0108952E
:10124000CF92DF92EF92FF920F931F93CF93DF9392
:101250007C016B018A01C0E0D0E00FC0D6016D9126
:101260006D01D701ED91FC910190F081E02DC70156
:101270000995C80FD91F015010400115110571F7CC
:10128000CE01DF91CF911F910F91FF90EF90DF90F2
:10129000CF900895A1E21A2EAA1BBB1BFD010DC021
:1012A000AA1FBB1FEE1FFF1FA217B307E407F50716
:1012B00020F0A21BB30BE40BF50B661F771F881FF2
:1012C000991F1A9469F760957095809590959B0188
:1012D000AC01BD01CF010895EE0FFF1F0590F49101
:0812E000E02D0994F894FFCF02
:1012E80020000202000001040803020F0D0E0C0B7F
:1012F800090A0800020103040605070C000A000792
:10130800000D000B00090005000600000000009712
:0C1318000820092B085C083C0885080030
:00000001FF
